{
  "_format": "hh-sol-artifact-1",
  "contractName": "ARCFunctionsConsumer",
  "sourceName": "contracts/ARCFunctionsConsumer.sol",
  "abi": [
    {
      "inputs": [],
      "stateMutability": "nonpayable",
      "type": "constructor"
    },
    {
      "anonymous": false,
      "inputs": [
        {
          "indexed": false,
          "internalType": "bytes",
          "name": "result",
          "type": "bytes"
        },
        {
          "indexed": false,
          "internalType": "bytes",
          "name": "err",
          "type": "bytes"
        }
      ],
      "name": "OCRResponse",
      "type": "event"
    },
    {
      "anonymous": false,
      "inputs": [
        {
          "indexed": true,
          "internalType": "address",
          "name": "from",
          "type": "address"
        },
        {
          "indexed": true,
          "internalType": "address",
          "name": "to",
          "type": "address"
        }
      ],
      "name": "OwnershipTransferRequested",
      "type": "event"
    },
    {
      "anonymous": false,
      "inputs": [
        {
          "indexed": true,
          "internalType": "address",
          "name": "from",
          "type": "address"
        },
        {
          "indexed": true,
          "internalType": "address",
          "name": "to",
          "type": "address"
        }
      ],
      "name": "OwnershipTransferred",
      "type": "event"
    },
    {
      "inputs": [],
      "name": "acceptOwnership",
      "outputs": [],
      "stateMutability": "nonpayable",
      "type": "function"
    },
    {
      "inputs": [],
      "name": "functionsRouter",
      "outputs": [
        {
          "internalType": "address",
          "name": "",
          "type": "address"
        }
      ],
      "stateMutability": "view",
      "type": "function"
    },
    {
      "inputs": [],
      "name": "gasLimit",
      "outputs": [
        {
          "internalType": "uint32",
          "name": "",
          "type": "uint32"
        }
      ],
      "stateMutability": "view",
      "type": "function"
    },
    {
      "inputs": [],
      "name": "latestError",
      "outputs": [
        {
          "internalType": "bytes",
          "name": "",
          "type": "bytes"
        }
      ],
      "stateMutability": "view",
      "type": "function"
    },
    {
      "inputs": [],
      "name": "latestRequestId",
      "outputs": [
        {
          "internalType": "bytes32",
          "name": "",
          "type": "bytes32"
        }
      ],
      "stateMutability": "view",
      "type": "function"
    },
    {
      "inputs": [],
      "name": "latestResponse",
      "outputs": [
        {
          "internalType": "string",
          "name": "",
          "type": "string"
        }
      ],
      "stateMutability": "view",
      "type": "function"
    },
    {
      "inputs": [
        {
          "internalType": "string",
          "name": "responseText",
          "type": "string"
        }
      ],
      "name": "mockFulfill",
      "outputs": [],
      "stateMutability": "nonpayable",
      "type": "function"
    },
    {
      "inputs": [],
      "name": "owner",
      "outputs": [
        {
          "internalType": "address",
          "name": "",
          "type": "address"
        }
      ],
      "stateMutability": "view",
      "type": "function"
    },
    {
      "inputs": [
        {
          "internalType": "string",
          "name": "_source",
          "type": "string"
        }
      ],
      "name": "setSource",
      "outputs": [],
      "stateMutability": "nonpayable",
      "type": "function"
    },
    {
      "inputs": [
        {
          "internalType": "uint64",
          "name": "_subscriptionId",
          "type": "uint64"
        }
      ],
      "name": "setSubscriptionId",
      "outputs": [],
      "stateMutability": "nonpayable",
      "type": "function"
    },
    {
      "inputs": [],
      "name": "source",
      "outputs": [
        {
          "internalType": "string",
          "name": "",
          "type": "string"
        }
      ],
      "stateMutability": "view",
      "type": "function"
    },
    {
      "inputs": [],
      "name": "subscriptionId",
      "outputs": [
        {
          "internalType": "uint64",
          "name": "",
          "type": "uint64"
        }
      ],
      "stateMutability": "view",
      "type": "function"
    },
    {
      "inputs": [
        {
          "internalType": "address",
          "name": "to",
          "type": "address"
        }
      ],
      "name": "transferOwnership",
      "outputs": [],
      "stateMutability": "nonpayable",
      "type": "function"
    },
    {
      "inputs": [
        {
          "internalType": "address",
          "name": "_newRouter",
          "type": "address"
        }
      ],
      "name": "updateRouter",
      "outputs": [],
      "stateMutability": "nonpayable",
      "type": "function"
    }
  ],
  "bytecode": "0x60806040526006805463ffffffff60401b19166a0493e0000000000000000017905534801561002d57600080fd5b50600080546001600160a01b031916738c809b9fc1d9ff36df304f90cc06aa94f5e47e5417815533908190816100aa5760405162461bcd60e51b815260206004820152601860248201527f43616e6e6f7420736574206f776e657220746f207a65726f000000000000000060448201526064015b60405180910390fd5b600180546001600160a01b0319166001600160a01b03848116919091179091558116156100da576100da816100e2565b50505061018c565b336001600160a01b0382160361013a5760405162461bcd60e51b815260206004820152601760248201527f43616e6e6f74207472616e7366657220746f2073656c6600000000000000000060448201526064016100a1565b600280546001600160a01b0319166001600160a01b03838116918217909255600154604051919216907fed8889f560326eb138920d842192f0eb3dd22b4f139c87a2c57538e05bae127890600090a350565b6109328061019b6000396000f3fe608060405234801561001057600080fd5b50600436106100ea5760003560e01c8063bef3a2f01161008c578063ea7b4f7711610066578063ea7b4f77146101d0578063f2fde38b146101e3578063f68016b7146101f6578063fffeb84e1461022757600080fd5b8063bef3a2f0146101a2578063c851cc32146101aa578063d58f05da146101bd57600080fd5b806379ba5097116100c857806379ba50971461014d57806387acbcc0146101575780638da5cb5b1461016a57806399d254551461018f57600080fd5b806309c1ba2e146100ef5780631aa46f591461012157806367e828bf14610138575b600080fd5b6006546101039067ffffffffffffffff1681565b60405167ffffffffffffffff90911681526020015b60405180910390f35b61012a60055481565b604051908152602001610118565b61014061022f565b604051610118919061064f565b6101556102bd565b005b61015561016536600461067f565b610370565b6001546001600160a01b03165b6040516001600160a01b039091168152602001610118565b61015561019d36600461067f565b6103cb565b6101406103e3565b6101556101b8366004610730565b6103f0565b600054610177906001600160a01b031681565b6101556101de366004610759565b610465565b6101556101f1366004610730565b610491565b6006546102129068010000000000000000900463ffffffff1681565b60405163ffffffff9091168152602001610118565b6101406104a5565b6007805461023c90610783565b80601f016020809104026020016040519081016040528092919081815260200182805461026890610783565b80156102b55780601f1061028a576101008083540402835291602001916102b5565b820191906000526020600020905b81548152906001019060200180831161029857829003601f168201915b505050505081565b6002546001600160a01b031633146103155760405162461bcd60e51b815260206004820152601660248201527526bab9ba10313290383937b837b9b2b21037bbb732b960511b60448201526064015b60405180910390fd5b600180546001600160a01b0319808216339081179093556002805490911690556040516001600160a01b03909116919082907f8be0079c531659141344cd1fd0a4f28419497f9722a3daafe3b4186f6b6457e090600090a350565b6103786104b2565b604051636d6f636b60e01b602082015242602482015260009060440160408051601f19818403018152828252805160209182012090830190915260008252915082906103c5838383610507565b50505050565b6103d36104b2565b60076103df828261080e565b5050565b6003805461023c90610783565b6000546001600160a01b031633146104435760405162461bcd60e51b81526020600482015260166024820152754f6e6c7920726f757465722063616e2075706461746560501b604482015260640161030c565b600080546001600160a01b0319166001600160a01b0392909216919091179055565b61046d6104b2565b6006805467ffffffffffffffff191667ffffffffffffffff92909216919091179055565b6104996104b2565b6104a28161055f565b50565b6004805461023c90610783565b6001546001600160a01b031633146105055760405162461bcd60e51b815260206004820152601660248201527527b7363c9031b0b63630b1363290313c9037bbb732b960511b604482015260640161030c565b565b6003610513838261080e565b506004610520828261080e565b507f99ce833e5ae8c00125986f55d9bd6e8db6cccd52f82429960b4ee443fbe8ecdf82826040516105529291906108ce565b60405180910390a1505050565b336001600160a01b038216036105b75760405162461bcd60e51b815260206004820152601760248201527f43616e6e6f74207472616e7366657220746f2073656c66000000000000000000604482015260640161030c565b600280546001600160a01b0319166001600160a01b03838116918217909255600154604051919216907fed8889f560326eb138920d842192f0eb3dd22b4f139c87a2c57538e05bae127890600090a350565b6000815180845260005b8181101561062f57602081850181015186830182015201610613565b506000602082860101526020601f19601f83011685010191505092915050565b6020815260006106626020830184610609565b9392505050565b634e487b7160e01b600052604160045260246000fd5b60006020828403121561069157600080fd5b813567ffffffffffffffff808211156106a957600080fd5b818401915084601f8301126106bd57600080fd5b8135818111156106cf576106cf610669565b604051601f8201601f19908116603f011681019083821181831017156106f7576106f7610669565b8160405282815287602084870101111561071057600080fd5b826020860160208301376000928101602001929092525095945050505050565b60006020828403121561074257600080fd5b81356001600160a01b038116811461066257600080fd5b60006020828403121561076b57600080fd5b813567ffffffffffffffff8116811461066257600080fd5b600181811c9082168061079757607f821691505b6020821081036107b757634e487b7160e01b600052602260045260246000fd5b50919050565b601f821115610809576000816000526020600020601f850160051c810160208610156107e65750805b601f850160051c820191505b81811015610805578281556001016107f2565b5050505b505050565b815167ffffffffffffffff81111561082857610828610669565b61083c816108368454610783565b846107bd565b602080601f83116001811461087157600084156108595750858301515b600019600386901b1c1916600185901b178555610805565b600085815260208120601f198616915b828110156108a057888601518255948401946001909101908401610881565b50858210156108be5787850151600019600388901b60f8161c191681555b5050505050600190811b01905550565b6040815260006108e16040830185610609565b82810360208401526108f38185610609565b9594505050505056fea2646970667358221220a0e77dbfaa33a9eb5a4b6cf3b4a2adf13e480e4427144d86dc520184b30ce4fa64736f6c63430008180033",
  "linkReferences": {},
  "deployedLinkReferences": {}
}