{
  "_format": "hh-sol-artifact-1",
  "contractName": "ARCFunctionsConsumer",
  "sourceName": "contracts/ARCFunctionsConsumer.sol",
  "abi": [
    {
      "inputs": [
        {
          "internalType": "address",
          "name": "router",
          "type": "address"
        },
        {
          "internalType": "bytes32",
          "name": "_donId",
          "type": "bytes32"
        }
      ],
      "stateMutability": "nonpayable",
      "type": "constructor"
    },
    {
      "inputs": [],
      "name": "EmptyArgs",
      "type": "error"
    },
    {
      "inputs": [],
      "name": "EmptySource",
      "type": "error"
    },
    {
      "inputs": [],
      "name": "NoInlineSecrets",
      "type": "error"
    },
    {
      "inputs": [],
      "name": "OnlyRouterCanFulfill",
      "type": "error"
    },
    {
      "anonymous": false,
      "inputs": [
        {
          "indexed": true,
          "internalType": "address",
          "name": "from",
          "type": "address"
        },
        {
          "indexed": true,
          "internalType": "address",
          "name": "to",
          "type": "address"
        }
      ],
      "name": "OwnershipTransferRequested",
      "type": "event"
    },
    {
      "anonymous": false,
      "inputs": [
        {
          "indexed": true,
          "internalType": "address",
          "name": "from",
          "type": "address"
        },
        {
          "indexed": true,
          "internalType": "address",
          "name": "to",
          "type": "address"
        }
      ],
      "name": "OwnershipTransferred",
      "type": "event"
    },
    {
      "anonymous": false,
      "inputs": [
        {
          "indexed": true,
          "internalType": "bytes32",
          "name": "id",
          "type": "bytes32"
        }
      ],
      "name": "RequestFulfilled",
      "type": "event"
    },
    {
      "anonymous": false,
      "inputs": [
        {
          "indexed": true,
          "internalType": "bytes32",
          "name": "id",
          "type": "bytes32"
        }
      ],
      "name": "RequestSent",
      "type": "event"
    },
    {
      "inputs": [],
      "name": "acceptOwnership",
      "outputs": [],
      "stateMutability": "nonpayable",
      "type": "function"
    },
    {
      "inputs": [],
      "name": "donId",
      "outputs": [
        {
          "internalType": "bytes32",
          "name": "",
          "type": "bytes32"
        }
      ],
      "stateMutability": "view",
      "type": "function"
    },
    {
      "inputs": [
        {
          "internalType": "bytes32",
          "name": "requestId",
          "type": "bytes32"
        },
        {
          "internalType": "bytes",
          "name": "response",
          "type": "bytes"
        },
        {
          "internalType": "bytes",
          "name": "err",
          "type": "bytes"
        }
      ],
      "name": "handleOracleFulfillment",
      "outputs": [],
      "stateMutability": "nonpayable",
      "type": "function"
    },
    {
      "inputs": [],
      "name": "owner",
      "outputs": [
        {
          "internalType": "address",
          "name": "",
          "type": "address"
        }
      ],
      "stateMutability": "view",
      "type": "function"
    },
    {
      "inputs": [],
      "name": "s_lastError",
      "outputs": [
        {
          "internalType": "bytes",
          "name": "",
          "type": "bytes"
        }
      ],
      "stateMutability": "view",
      "type": "function"
    },
    {
      "inputs": [],
      "name": "s_lastRequestId",
      "outputs": [
        {
          "internalType": "bytes32",
          "name": "",
          "type": "bytes32"
        }
      ],
      "stateMutability": "view",
      "type": "function"
    },
    {
      "inputs": [],
      "name": "s_lastResponse",
      "outputs": [
        {
          "internalType": "bytes",
          "name": "",
          "type": "bytes"
        }
      ],
      "stateMutability": "view",
      "type": "function"
    },
    {
      "inputs": [
        {
          "internalType": "string",
          "name": "source",
          "type": "string"
        },
        {
          "internalType": "enum FunctionsRequest.Location",
          "name": "secretsLocation",
          "type": "uint8"
        },
        {
          "internalType": "bytes",
          "name": "encryptedSecretsReference",
          "type": "bytes"
        },
        {
          "internalType": "string[]",
          "name": "args",
          "type": "string[]"
        },
        {
          "internalType": "bytes[]",
          "name": "bytesArgs",
          "type": "bytes[]"
        },
        {
          "internalType": "uint64",
          "name": "subscriptionId",
          "type": "uint64"
        },
        {
          "internalType": "uint32",
          "name": "callbackGasLimit",
          "type": "uint32"
        }
      ],
      "name": "sendRequest",
      "outputs": [],
      "stateMutability": "nonpayable",
      "type": "function"
    },
    {
      "inputs": [
        {
          "internalType": "bytes32",
          "name": "newDonId",
          "type": "bytes32"
        }
      ],
      "name": "setDonId",
      "outputs": [],
      "stateMutability": "nonpayable",
      "type": "function"
    },
    {
      "inputs": [
        {
          "internalType": "bytes32",
          "name": "requestId",
          "type": "bytes32"
        },
        {
          "internalType": "bytes",
          "name": "response",
          "type": "bytes"
        },
        {
          "internalType": "bytes",
          "name": "err",
          "type": "bytes"
        }
      ],
      "name": "testFulfillRequest",
      "outputs": [],
      "stateMutability": "nonpayable",
      "type": "function"
    },
    {
      "inputs": [
        {
          "internalType": "address",
          "name": "to",
          "type": "address"
        }
      ],
      "name": "transferOwnership",
      "outputs": [],
      "stateMutability": "nonpayable",
      "type": "function"
    }
  ],
  "bytecode": "0x60a06040523480156200001157600080fd5b5060405162002c0438038062002c04833981810160405281019062000037919062000350565b33806000848073ffffffffffffffffffffffffffffffffffffffff1660808173ffffffffffffffffffffffffffffffffffffffff168152505050600073ffffffffffffffffffffffffffffffffffffffff168273ffffffffffffffffffffffffffffffffffffffff1603620000e3576040517f08c379a0000000000000000000000000000000000000000000000000000000008152600401620000da90620003f8565b60405180910390fd5b816000806101000a81548173ffffffffffffffffffffffffffffffffffffffff021916908373ffffffffffffffffffffffffffffffffffffffff160217905550600073ffffffffffffffffffffffffffffffffffffffff168173ffffffffffffffffffffffffffffffffffffffff16146200016a5762000169816200017c60201b60201c565b5b5050508060028190555050506200048c565b3373ffffffffffffffffffffffffffffffffffffffff168173ffffffffffffffffffffffffffffffffffffffff1603620001ed576040517f08c379a0000000000000000000000000000000000000000000000000000000008152600401620001e4906200046a565b60405180910390fd5b80600160006101000a81548173ffffffffffffffffffffffffffffffffffffffff021916908373ffffffffffffffffffffffffffffffffffffffff1602179055508073ffffffffffffffffffffffffffffffffffffffff1660008054906101000a900473ffffffffffffffffffffffffffffffffffffffff1673ffffffffffffffffffffffffffffffffffffffff167fed8889f560326eb138920d842192f0eb3dd22b4f139c87a2c57538e05bae127860405160405180910390a350565b600080fd5b600073ffffffffffffffffffffffffffffffffffffffff82169050919050565b6000620002dd82620002b0565b9050919050565b620002ef81620002d0565b8114620002fb57600080fd5b50565b6000815190506200030f81620002e4565b92915050565b6000819050919050565b6200032a8162000315565b81146200033657600080fd5b50565b6000815190506200034a816200031f565b92915050565b600080604083850312156200036a5762000369620002ab565b5b60006200037a85828601620002fe565b92505060206200038d8582860162000339565b9150509250929050565b600082825260208201905092915050565b7f43616e6e6f7420736574206f776e657220746f207a65726f0000000000000000600082015250565b6000620003e060188362000397565b9150620003ed82620003a8565b602082019050919050565b600060208201905081810360008301526200041381620003d1565b9050919050565b7f43616e6e6f74207472616e7366657220746f2073656c66000000000000000000600082015250565b60006200045260178362000397565b91506200045f826200041a565b602082019050919050565b60006020820190508181036000830152620004858162000443565b9050919050565b608051612755620004af600039600081816101dc0152610d3301526127556000f3fe608060405234801561001057600080fd5b50600436106100a95760003560e01c806379ba50971161007157806379ba50971461013e5780637f27b9e5146101485780638da5cb5b146101645780638dbe7b9d14610182578063b1e21749146101a0578063f2fde38b146101be576100a9565b80630ca76175146100ae578063231c1619146100ca5780633944ea3a146100e65780634b0795a81461010457806378ca5de714610122575b600080fd5b6100c860048036038101906100c391906116f4565b6101da565b005b6100e460048036038101906100df9190611982565b61029c565b005b6100ee610407565b6040516100fb9190611b25565b60405180910390f35b61010c610495565b6040516101199190611b25565b60405180910390f35b61013c60048036038101906101379190611b47565b610523565b005b610146610535565b005b610162600480360381019061015d91906116f4565b6106ca565b005b61016c6106da565b6040516101799190611bb5565b60405180910390f35b61018a610703565b6040516101979190611bdf565b60405180910390f35b6101a8610709565b6040516101b59190611bdf565b60405180910390f35b6101d860048036038101906101d39190611c26565b61070f565b005b7f000000000000000000000000000000000000000000000000000000000000000073ffffffffffffffffffffffffffffffffffffffff163373ffffffffffffffffffffffffffffffffffffffff161461025f576040517fc6829f8300000000000000000000000000000000000000000000000000000000815260040160405180910390fd5b61026a838383610723565b827f85e1543bf2f84fe80c6badbce3648c8539ad1df4d2b3d822938ca0538be727e660405160405180910390a2505050565b6102a4610748565b6102ac6114b8565b6103086000808e8e8080601f016020809104026020016040519081016040528093929190818152602001838380828437600081840152601f19601f82011690508083019250505050505050846107d8909392919063ffffffff16565b89816020019060028111156103205761031f611c53565b5b9081600281111561033457610333611c53565b5b8152505088888080601f016020809104026020016040519081016040528093929190818152602001838380828437600081840152601f19601f82011690508083019250505050505050816080018190525060008787905011156103b1576103b08787906103a19190611dd6565b8261088290919063ffffffff16565b5b60008585905011156103dd576103dc8585906103cd9190611e9e565b826108ca90919063ffffffff16565b5b6103f36103e982610912565b8484600254610d2e565b600381905550505050505050505050505050565b6004805461041490611ee2565b80601f016020809104026020016040519081016040528092919081815260200182805461044090611ee2565b801561048d5780601f106104625761010080835404028352916020019161048d565b820191906000526020600020905b81548152906001019060200180831161047057829003601f168201915b505050505081565b600580546104a290611ee2565b80601f01602080910402602001604051908101604052809291908181526020018280546104ce90611ee2565b801561051b5780601f106104f05761010080835404028352916020019161051b565b820191906000526020600020905b8154815290600101906020018083116104fe57829003601f168201915b505050505081565b61052b610748565b8060028190555050565b600160009054906101000a900473ffffffffffffffffffffffffffffffffffffffff1673ffffffffffffffffffffffffffffffffffffffff163373ffffffffffffffffffffffffffffffffffffffff16146105c5576040517f08c379a00000000000000000000000000000000000000000000000000000000081526004016105bc90611f70565b60405180910390fd5b60008060009054906101000a900473ffffffffffffffffffffffffffffffffffffffff169050336000806101000a81548173ffffffffffffffffffffffffffffffffffffffff021916908373ffffffffffffffffffffffffffffffffffffffff1602179055506000600160006101000a81548173ffffffffffffffffffffffffffffffffffffffff021916908373ffffffffffffffffffffffffffffffffffffffff1602179055503373ffffffffffffffffffffffffffffffffffffffff168173ffffffffffffffffffffffffffffffffffffffff167f8be0079c531659141344cd1fd0a4f28419497f9722a3daafe3b4186f6b6457e060405160405180910390a350565b6106d5838383610723565b505050565b60008060009054906101000a900473ffffffffffffffffffffffffffffffffffffffff16905090565b60025481565b60035481565b610717610748565b61072081610e11565b50565b81600490816107329190612146565b5080600590816107429190612146565b50505050565b60008054906101000a900473ffffffffffffffffffffffffffffffffffffffff1673ffffffffffffffffffffffffffffffffffffffff163373ffffffffffffffffffffffffffffffffffffffff16146107d6576040517f08c379a00000000000000000000000000000000000000000000000000000000081526004016107cd90612264565b60405180910390fd5b565b6000815103610813576040517f22ce3edd00000000000000000000000000000000000000000000000000000000815260040160405180910390fd5b828460000190600281111561082b5761082a611c53565b5b9081600281111561083f5761083e611c53565b5b81525050818460400190600081111561085b5761085a611c53565b5b9081600081111561086f5761086e611c53565b5b8152505080846060018190525050505050565b60008151036108bd576040517ffe936cb700000000000000000000000000000000000000000000000000000000815260040160405180910390fd5b808260a001819052505050565b6000815103610905576040517ffe936cb700000000000000000000000000000000000000000000000000000000815260040160405180910390fd5b808260c001819052505050565b60606000610921610100610f3d565b905061096b6040518060400160405280600c81526020017f636f64654c6f636174696f6e000000000000000000000000000000000000000081525082610f6490919063ffffffff16565b6109948360000151600281111561098557610984611c53565b5b82610f8d90919063ffffffff16565b6109dc6040518060400160405280600881526020017f6c616e677561676500000000000000000000000000000000000000000000000081525082610f6490919063ffffffff16565b610a05836040015160008111156109f6576109f5611c53565b5b82610f8d90919063ffffffff16565b610a4d6040518060400160405280600681526020017f736f75726365000000000000000000000000000000000000000000000000000081525082610f6490919063ffffffff16565b610a64836060015182610f6490919063ffffffff16565b60008360a00151511115610b2057610aba6040518060400160405280600481526020017f617267730000000000000000000000000000000000000000000000000000000081525082610f6490919063ffffffff16565b610ac381610fdd565b60005b8360a0015151811015610b1557610b048460a001518281518110610aed57610aec612284565b5b602002602001015183610f6490919063ffffffff16565b80610b0e906122e2565b9050610ac6565b50610b1f81611005565b5b60008360800151511115610c615760006002811115610b4257610b41611c53565b5b83602001516002811115610b5957610b58611c53565b5b03610b90576040517fa80d31f700000000000000000000000000000000000000000000000000000000815260040160405180910390fd5b610bd86040518060400160405280600f81526020017f736563726574734c6f636174696f6e000000000000000000000000000000000081525082610f6490919063ffffffff16565b610c0183602001516002811115610bf257610bf1611c53565b5b82610f8d90919063ffffffff16565b610c496040518060400160405280600781526020017f736563726574730000000000000000000000000000000000000000000000000081525082610f6490919063ffffffff16565b610c6083608001518261102d90919063ffffffff16565b5b60008360c00151511115610d1d57610cb76040518060400160405280600981526020017f627974657341726773000000000000000000000000000000000000000000000081525082610f6490919063ffffffff16565b610cc081610fdd565b60005b8360c0015151811015610d1257610d018460c001518281518110610cea57610ce9612284565b5b60200260200101518361102d90919063ffffffff16565b80610d0b906122e2565b9050610cc3565b50610d1c81611005565b5b806000015160000151915050919050565b6000807f000000000000000000000000000000000000000000000000000000000000000073ffffffffffffffffffffffffffffffffffffffff1663461d27628688600188886040518663ffffffff1660e01b8152600401610d93959493929190612365565b6020604051808303816000875af1158015610db2573d6000803e3d6000fd5b505050506040513d601f19601f82011682018060405250810190610dd691906123d4565b9050807f1131472297a800fee664d1d89cfa8f7676ff07189ecc53f80bbb5f4969099db860405160405180910390a280915050949350505050565b3373ffffffffffffffffffffffffffffffffffffffff168173ffffffffffffffffffffffffffffffffffffffff1603610e7f576040517f08c379a0000000000000000000000000000000000000000000000000000000008152600401610e769061244d565b60405180910390fd5b80600160006101000a81548173ffffffffffffffffffffffffffffffffffffffff021916908373ffffffffffffffffffffffffffffffffffffffff1602179055508073ffffffffffffffffffffffffffffffffffffffff1660008054906101000a900473ffffffffffffffffffffffffffffffffffffffff1673ffffffffffffffffffffffffffffffffffffffff167fed8889f560326eb138920d842192f0eb3dd22b4f139c87a2c57538e05bae127860405160405180910390a350565b610f4561152a565b610f53816000015183611056565b506000816020018181525050919050565b610f7182600383516110cf565b610f8881836000015161127890919063ffffffff16565b505050565b610faf60026005600660ff16901b17836000015161129490919063ffffffff16565b50610fd98282604051602001610fc5919061247c565b60405160208183030381529060405261102d565b5050565b610fe88160046112fe565b600181602001818151610ffb9190612497565b9150818152505050565b6110108160076112fe565b60018160200181815161102391906124cb565b9150818152505050565b61103a82600283516110cf565b61105181836000015161127890919063ffffffff16565b505050565b61105e61154a565b600060208361106d919061252e565b146110995760208261107f919061252e565b602061108b91906124cb565b826110969190612497565b91505b8183602001818152505060405180845260008152828101602001818110156110c057600080fd5b80604052505082905092915050565b60178167ffffffffffffffff161161110a576111048160058460ff16901b60ff1617846000015161129490919063ffffffff16565b50611273565b60ff8167ffffffffffffffff16116111685761113d601860058460ff16901b17846000015161129490919063ffffffff16565b506111628167ffffffffffffffff16600185600001516113249092919063ffffffff16565b50611272565b61ffff8167ffffffffffffffff16116111c75761119c601960058460ff16901b17846000015161129490919063ffffffff16565b506111c18167ffffffffffffffff16600285600001516113249092919063ffffffff16565b50611271565b63ffffffff8167ffffffffffffffff1611611228576111fd601a60058460ff16901b17846000015161129490919063ffffffff16565b506112228167ffffffffffffffff16600485600001516113249092919063ffffffff16565b50611270565b611249601b60058460ff16901b17846000015161129490919063ffffffff16565b5061126e8167ffffffffffffffff16600885600001516113249092919063ffffffff16565b505b5b5b5b505050565b61128061154a565b61128c838384516113b1565b905092915050565b61129c61154a565b6000836000015151905060006001826112b59190612497565b9050846020015182106112d9576112d8856002836112d3919061255f565b611494565b5b845160208382010185815381518311156112f1578282525b5050849250505092915050565b61131f601f60058360ff16901b17836000015161129490919063ffffffff16565b505050565b61132c61154a565b60008460000151519050600081846113449190612497565b905085602001518111156113695761136886600283611363919061255f565b611494565b5b600060018561010061137b91906126d4565b61138591906124cb565b9050865182810187831982511617815281518411156113a2578382525b50508693505050509392505050565b6113b961154a565b82518211156113c757600080fd5b60008460000151519050600083826113df9190612497565b9050856020015181111561140457611403866002836113fe919061255f565b611494565b5b6000808751805185602083010193508085111561141f578482525b60208901925050505b6020861061146657805182526020826114419190612497565b91506020816114509190612497565b905060208661145f91906124cb565b9550611428565b60006001876020036101000a0390508019825116818451168181178552505050879450505050509392505050565b6000826000015190506114a78383611056565b506114b28382611278565b50505050565b6040518060e00160405280600060028111156114d7576114d6611c53565b5b8152602001600060028111156114f0576114ef611c53565b5b815260200160008081111561150857611507611c53565b5b8152602001606081526020016060815260200160608152602001606081525090565b604051806040016040528061153d61154a565b8152602001600081525090565b604051806040016040528060608152602001600081525090565b6000604051905090565b600080fd5b600080fd5b6000819050919050565b61158b81611578565b811461159657600080fd5b50565b6000813590506115a881611582565b92915050565b600080fd5b600080fd5b6000601f19601f8301169050919050565b7f4e487b7100000000000000000000000000000000000000000000000000000000600052604160045260246000fd5b611601826115b8565b810181811067ffffffffffffffff821117156116205761161f6115c9565b5b80604052505050565b6000611633611564565b905061163f82826115f8565b919050565b600067ffffffffffffffff82111561165f5761165e6115c9565b5b611668826115b8565b9050602081019050919050565b82818337600083830152505050565b600061169761169284611644565b611629565b9050828152602081018484840111156116b3576116b26115b3565b5b6116be848285611675565b509392505050565b600082601f8301126116db576116da6115ae565b5b81356116eb848260208601611684565b91505092915050565b60008060006060848603121561170d5761170c61156e565b5b600061171b86828701611599565b935050602084013567ffffffffffffffff81111561173c5761173b611573565b5b611748868287016116c6565b925050604084013567ffffffffffffffff81111561176957611768611573565b5b611775868287016116c6565b9150509250925092565b600080fd5b600080fd5b60008083601f84011261179f5761179e6115ae565b5b8235905067ffffffffffffffff8111156117bc576117bb61177f565b5b6020830191508360018202830111156117d8576117d7611784565b5b9250929050565b600381106117ec57600080fd5b50565b6000813590506117fe816117df565b92915050565b60008083601f84011261181a576118196115ae565b5b8235905067ffffffffffffffff8111156118375761183661177f565b5b60208301915083600182028301111561185357611852611784565b5b9250929050565b60008083601f8401126118705761186f6115ae565b5b8235905067ffffffffffffffff81111561188d5761188c61177f565b5b6020830191508360208202830111156118a9576118a8611784565b5b9250929050565b60008083601f8401126118c6576118c56115ae565b5b8235905067ffffffffffffffff8111156118e3576118e261177f565b5b6020830191508360208202830111156118ff576118fe611784565b5b9250929050565b600067ffffffffffffffff82169050919050565b61192381611906565b811461192e57600080fd5b50565b6000813590506119408161191a565b92915050565b600063ffffffff82169050919050565b61195f81611946565b811461196a57600080fd5b50565b60008135905061197c81611956565b92915050565b600080600080600080600080600080600060e08c8e0312156119a7576119a661156e565b5b60008c013567ffffffffffffffff8111156119c5576119c4611573565b5b6119d18e828f01611789565b9b509b505060206119e48e828f016117ef565b99505060408c013567ffffffffffffffff811115611a0557611a04611573565b5b611a118e828f01611804565b985098505060608c013567ffffffffffffffff811115611a3457611a33611573565b5b611a408e828f0161185a565b965096505060808c013567ffffffffffffffff811115611a6357611a62611573565b5b611a6f8e828f016118b0565b945094505060a0611a828e828f01611931565b92505060c0611a938e828f0161196d565b9150509295989b509295989b9093969950565b600081519050919050565b600082825260208201905092915050565b60005b83811015611ae0578082015181840152602081019050611ac5565b60008484015250505050565b6000611af782611aa6565b611b018185611ab1565b9350611b11818560208601611ac2565b611b1a816115b8565b840191505092915050565b60006020820190508181036000830152611b3f8184611aec565b905092915050565b600060208284031215611b5d57611b5c61156e565b5b6000611b6b84828501611599565b91505092915050565b600073ffffffffffffffffffffffffffffffffffffffff82169050919050565b6000611b9f82611b74565b9050919050565b611baf81611b94565b82525050565b6000602082019050611bca6000830184611ba6565b92915050565b611bd981611578565b82525050565b6000602082019050611bf46000830184611bd0565b92915050565b611c0381611b94565b8114611c0e57600080fd5b50565b600081359050611c2081611bfa565b92915050565b600060208284031215611c3c57611c3b61156e565b5b6000611c4a84828501611c11565b91505092915050565b7f4e487b7100000000000000000000000000000000000000000000000000000000600052602160045260246000fd5b600067ffffffffffffffff821115611c9d57611c9c6115c9565b5b602082029050602081019050919050565b600067ffffffffffffffff821115611cc957611cc86115c9565b5b611cd2826115b8565b9050602081019050919050565b6000611cf2611ced84611cae565b611629565b905082815260208101848484011115611d0e57611d0d6115b3565b5b611d19848285611675565b509392505050565b600082601f830112611d3657611d356115ae565b5b8135611d46848260208601611cdf565b91505092915050565b6000611d62611d5d84611c82565b611629565b90508083825260208201905060208402830185811115611d8557611d84611784565b5b835b81811015611dcc57803567ffffffffffffffff811115611daa57611da96115ae565b5b808601611db78982611d21565b85526020850194505050602081019050611d87565b5050509392505050565b6000611de3368484611d4f565b905092915050565b600067ffffffffffffffff821115611e0657611e056115c9565b5b602082029050602081019050919050565b6000611e2a611e2584611deb565b611629565b90508083825260208201905060208402830185811115611e4d57611e4c611784565b5b835b81811015611e9457803567ffffffffffffffff811115611e7257611e716115ae565b5b808601611e7f89826116c6565b85526020850194505050602081019050611e4f565b5050509392505050565b6000611eab368484611e17565b905092915050565b7f4e487b7100000000000000000000000000000000000000000000000000000000600052602260045260246000fd5b60006002820490506001821680611efa57607f821691505b602082108103611f0d57611f0c611eb3565b5b50919050565b600082825260208201905092915050565b7f4d7573742062652070726f706f736564206f776e657200000000000000000000600082015250565b6000611f5a601683611f13565b9150611f6582611f24565b602082019050919050565b60006020820190508181036000830152611f8981611f4d565b9050919050565b60008190508160005260206000209050919050565b60006020601f8301049050919050565b600082821b905092915050565b600060088302611ff27fffffffffffffffffffffffffffffffffffffffffffffffffffffffffffffffff82611fb5565b611ffc8683611fb5565b95508019841693508086168417925050509392505050565b6000819050919050565b6000819050919050565b600061204361203e61203984612014565b61201e565b612014565b9050919050565b6000819050919050565b61205d83612028565b6120716120698261204a565b848454611fc2565b825550505050565b600090565b612086612079565b612091818484612054565b505050565b5b818110156120b5576120aa60008261207e565b600181019050612097565b5050565b601f8211156120fa576120cb81611f90565b6120d484611fa5565b810160208510156120e3578190505b6120f76120ef85611fa5565b830182612096565b50505b505050565b600082821c905092915050565b600061211d600019846008026120ff565b1980831691505092915050565b6000612136838361210c565b9150826002028217905092915050565b61214f82611aa6565b67ffffffffffffffff811115612168576121676115c9565b5b6121728254611ee2565b61217d8282856120b9565b600060209050601f8311600181146121b0576000841561219e578287015190505b6121a8858261212a565b865550612210565b601f1984166121be86611f90565b60005b828110156121e6578489015182556001820191506020850194506020810190506121c1565b8683101561220357848901516121ff601f89168261210c565b8355505b6001600288020188555050505b505050505050565b7f4f6e6c792063616c6c61626c65206279206f776e657200000000000000000000600082015250565b600061224e601683611f13565b915061225982612218565b602082019050919050565b6000602082019050818103600083015261227d81612241565b9050919050565b7f4e487b7100000000000000000000000000000000000000000000000000000000600052603260045260246000fd5b7f4e487b7100000000000000000000000000000000000000000000000000000000600052601160045260246000fd5b60006122ed82612014565b91507fffffffffffffffffffffffffffffffffffffffffffffffffffffffffffffffff820361231f5761231e6122b3565b5b600182019050919050565b61233381611906565b82525050565b600061ffff82169050919050565b61235081612339565b82525050565b61235f81611946565b82525050565b600060a08201905061237a600083018861232a565b818103602083015261238c8187611aec565b905061239b6040830186612347565b6123a86060830185612356565b6123b56080830184611bd0565b9695505050505050565b6000815190506123ce81611582565b92915050565b6000602082840312156123ea576123e961156e565b5b60006123f8848285016123bf565b91505092915050565b7f43616e6e6f74207472616e7366657220746f2073656c66000000000000000000600082015250565b6000612437601783611f13565b915061244282612401565b602082019050919050565b600060208201905081810360008301526124668161242a565b9050919050565b61247681612014565b82525050565b6000602082019050612491600083018461246d565b92915050565b60006124a282612014565b91506124ad83612014565b92508282019050808211156124c5576124c46122b3565b5b92915050565b60006124d682612014565b91506124e183612014565b92508282039050818111156124f9576124f86122b3565b5b92915050565b7f4e487b7100000000000000000000000000000000000000000000000000000000600052601260045260246000fd5b600061253982612014565b915061254483612014565b925082612554576125536124ff565b5b828206905092915050565b600061256a82612014565b915061257583612014565b925082820261258381612014565b9150828204841483151761259a576125996122b3565b5b5092915050565b60008160011c9050919050565b6000808291508390505b60018511156125f8578086048111156125d4576125d36122b3565b5b60018516156125e35780820291505b80810290506125f1856125a1565b94506125b8565b94509492505050565b60008261261157600190506126cd565b8161261f57600090506126cd565b8160018114612635576002811461263f5761266e565b60019150506126cd565b60ff841115612651576126506122b3565b5b8360020a915084821115612668576126676122b3565b5b506126cd565b5060208310610133831016604e8410600b84101617156126a35782820a90508381111561269e5761269d6122b3565b5b6126cd565b6126b084848460016125ae565b925090508184048111156126c7576126c66122b3565b5b81810290505b9392505050565b60006126df82612014565b91506126ea83612014565b92506127177fffffffffffffffffffffffffffffffffffffffffffffffffffffffffffffffff8484612601565b90509291505056fea2646970667358221220f4c88d6272bfe9f9f2cf7a3af8de2984f6d2883875fbd310b673dd878c9f679b64736f6c63430008140033",
  "linkReferences": {},
  "deployedLinkReferences": {}
}