{
  "_format": "hh-sol-artifact-1",
  "contractName": "FunctionsConsumer",
  "sourceName": "contracts/ARCFunctionsConsumer.sol",
  "abi": [
    {
      "inputs": [
        {
          "internalType": "address",
          "name": "router",
          "type": "address"
        },
        {
          "internalType": "bytes32",
          "name": "_donId",
          "type": "bytes32"
        }
      ],
      "stateMutability": "nonpayable",
      "type": "constructor"
    },
    {
      "inputs": [],
      "name": "EmptyArgs",
      "type": "error"
    },
    {
      "inputs": [],
      "name": "EmptySource",
      "type": "error"
    },
    {
      "inputs": [],
      "name": "NoInlineSecrets",
      "type": "error"
    },
    {
      "inputs": [],
      "name": "OnlyRouterCanFulfill",
      "type": "error"
    },
    {
      "anonymous": false,
      "inputs": [
        {
          "indexed": true,
          "internalType": "address",
          "name": "from",
          "type": "address"
        },
        {
          "indexed": true,
          "internalType": "address",
          "name": "to",
          "type": "address"
        }
      ],
      "name": "OwnershipTransferRequested",
      "type": "event"
    },
    {
      "anonymous": false,
      "inputs": [
        {
          "indexed": true,
          "internalType": "address",
          "name": "from",
          "type": "address"
        },
        {
          "indexed": true,
          "internalType": "address",
          "name": "to",
          "type": "address"
        }
      ],
      "name": "OwnershipTransferred",
      "type": "event"
    },
    {
      "anonymous": false,
      "inputs": [
        {
          "indexed": true,
          "internalType": "bytes32",
          "name": "id",
          "type": "bytes32"
        }
      ],
      "name": "RequestFulfilled",
      "type": "event"
    },
    {
      "anonymous": false,
      "inputs": [
        {
          "indexed": true,
          "internalType": "bytes32",
          "name": "id",
          "type": "bytes32"
        }
      ],
      "name": "RequestSent",
      "type": "event"
    },
    {
      "inputs": [],
      "name": "acceptOwnership",
      "outputs": [],
      "stateMutability": "nonpayable",
      "type": "function"
    },
    {
      "inputs": [],
      "name": "donId",
      "outputs": [
        {
          "internalType": "bytes32",
          "name": "",
          "type": "bytes32"
        }
      ],
      "stateMutability": "view",
      "type": "function"
    },
    {
      "inputs": [
        {
          "internalType": "bytes32",
          "name": "requestId",
          "type": "bytes32"
        },
        {
          "internalType": "bytes",
          "name": "response",
          "type": "bytes"
        },
        {
          "internalType": "bytes",
          "name": "err",
          "type": "bytes"
        }
      ],
      "name": "handleOracleFulfillment",
      "outputs": [],
      "stateMutability": "nonpayable",
      "type": "function"
    },
    {
      "inputs": [],
      "name": "owner",
      "outputs": [
        {
          "internalType": "address",
          "name": "",
          "type": "address"
        }
      ],
      "stateMutability": "view",
      "type": "function"
    },
    {
      "inputs": [],
      "name": "s_lastError",
      "outputs": [
        {
          "internalType": "bytes",
          "name": "",
          "type": "bytes"
        }
      ],
      "stateMutability": "view",
      "type": "function"
    },
    {
      "inputs": [],
      "name": "s_lastRequestId",
      "outputs": [
        {
          "internalType": "bytes32",
          "name": "",
          "type": "bytes32"
        }
      ],
      "stateMutability": "view",
      "type": "function"
    },
    {
      "inputs": [],
      "name": "s_lastResponse",
      "outputs": [
        {
          "internalType": "bytes",
          "name": "",
          "type": "bytes"
        }
      ],
      "stateMutability": "view",
      "type": "function"
    },
    {
      "inputs": [
        {
          "internalType": "string",
          "name": "source",
          "type": "string"
        },
        {
          "internalType": "enum FunctionsRequest.Location",
          "name": "secretsLocation",
          "type": "uint8"
        },
        {
          "internalType": "bytes",
          "name": "encryptedSecretsReference",
          "type": "bytes"
        },
        {
          "internalType": "string[]",
          "name": "args",
          "type": "string[]"
        },
        {
          "internalType": "bytes[]",
          "name": "bytesArgs",
          "type": "bytes[]"
        },
        {
          "internalType": "uint64",
          "name": "subscriptionId",
          "type": "uint64"
        },
        {
          "internalType": "uint32",
          "name": "callbackGasLimit",
          "type": "uint32"
        }
      ],
      "name": "sendRequest",
      "outputs": [],
      "stateMutability": "nonpayable",
      "type": "function"
    },
    {
      "inputs": [
        {
          "internalType": "bytes32",
          "name": "newDonId",
          "type": "bytes32"
        }
      ],
      "name": "setDonId",
      "outputs": [],
      "stateMutability": "nonpayable",
      "type": "function"
    },
    {
      "inputs": [
        {
          "internalType": "address",
          "name": "to",
          "type": "address"
        }
      ],
      "name": "transferOwnership",
      "outputs": [],
      "stateMutability": "nonpayable",
      "type": "function"
    }
  ],
  "bytecode": "0x60a06040523480156200001157600080fd5b5060405162002bcd38038062002bcd833981810160405281019062000037919062000350565b33806000848073ffffffffffffffffffffffffffffffffffffffff1660808173ffffffffffffffffffffffffffffffffffffffff168152505050600073ffffffffffffffffffffffffffffffffffffffff168273ffffffffffffffffffffffffffffffffffffffff1603620000e3576040517f08c379a0000000000000000000000000000000000000000000000000000000008152600401620000da90620003f8565b60405180910390fd5b816000806101000a81548173ffffffffffffffffffffffffffffffffffffffff021916908373ffffffffffffffffffffffffffffffffffffffff160217905550600073ffffffffffffffffffffffffffffffffffffffff168173ffffffffffffffffffffffffffffffffffffffff16146200016a5762000169816200017c60201b60201c565b5b5050508060028190555050506200048c565b3373ffffffffffffffffffffffffffffffffffffffff168173ffffffffffffffffffffffffffffffffffffffff1603620001ed576040517f08c379a0000000000000000000000000000000000000000000000000000000008152600401620001e4906200046a565b60405180910390fd5b80600160006101000a81548173ffffffffffffffffffffffffffffffffffffffff021916908373ffffffffffffffffffffffffffffffffffffffff1602179055508073ffffffffffffffffffffffffffffffffffffffff1660008054906101000a900473ffffffffffffffffffffffffffffffffffffffff1673ffffffffffffffffffffffffffffffffffffffff167fed8889f560326eb138920d842192f0eb3dd22b4f139c87a2c57538e05bae127860405160405180910390a350565b600080fd5b600073ffffffffffffffffffffffffffffffffffffffff82169050919050565b6000620002dd82620002b0565b9050919050565b620002ef81620002d0565b8114620002fb57600080fd5b50565b6000815190506200030f81620002e4565b92915050565b6000819050919050565b6200032a8162000315565b81146200033657600080fd5b50565b6000815190506200034a816200031f565b92915050565b600080604083850312156200036a5762000369620002ab565b5b60006200037a85828601620002fe565b92505060206200038d8582860162000339565b9150509250929050565b600082825260208201905092915050565b7f43616e6e6f7420736574206f776e657220746f207a65726f0000000000000000600082015250565b6000620003e060188362000397565b9150620003ed82620003a8565b602082019050919050565b600060208201905081810360008301526200041381620003d1565b9050919050565b7f43616e6e6f74207472616e7366657220746f2073656c66000000000000000000600082015250565b60006200045260178362000397565b91506200045f826200041a565b602082019050919050565b60006020820190508181036000830152620004858162000443565b9050919050565b60805161271e620004af600039600081816101b50152610cfc015261271e6000f3fe608060405234801561001057600080fd5b506004361061009e5760003560e01c806379ba50971161006657806379ba5097146101335780638da5cb5b1461013d5780638dbe7b9d1461015b578063b1e2174914610179578063f2fde38b146101975761009e565b80630ca76175146100a3578063231c1619146100bf5780633944ea3a146100db5780634b0795a8146100f957806378ca5de714610117575b600080fd5b6100bd60048036038101906100b891906116bd565b6101b3565b005b6100d960048036038101906100d4919061194b565b610275565b005b6100e36103e0565b6040516100f09190611aee565b60405180910390f35b61010161046e565b60405161010e9190611aee565b60405180910390f35b610131600480360381019061012c9190611b10565b6104fc565b005b61013b61050e565b005b6101456106a3565b6040516101529190611b7e565b60405180910390f35b6101636106cc565b6040516101709190611ba8565b60405180910390f35b6101816106d2565b60405161018e9190611ba8565b60405180910390f35b6101b160048036038101906101ac9190611bef565b6106d8565b005b7f000000000000000000000000000000000000000000000000000000000000000073ffffffffffffffffffffffffffffffffffffffff163373ffffffffffffffffffffffffffffffffffffffff1614610238576040517fc6829f8300000000000000000000000000000000000000000000000000000000815260040160405180910390fd5b6102438383836106ec565b827f85e1543bf2f84fe80c6badbce3648c8539ad1df4d2b3d822938ca0538be727e660405160405180910390a2505050565b61027d610711565b610285611481565b6102e16000808e8e8080601f016020809104026020016040519081016040528093929190818152602001838380828437600081840152601f19601f82011690508083019250505050505050846107a1909392919063ffffffff16565b89816020019060028111156102f9576102f8611c1c565b5b9081600281111561030d5761030c611c1c565b5b8152505088888080601f016020809104026020016040519081016040528093929190818152602001838380828437600081840152601f19601f820116905080830192505050505050508160800181905250600087879050111561038a5761038987879061037a9190611d9f565b8261084b90919063ffffffff16565b5b60008585905011156103b6576103b58585906103a69190611e67565b8261089390919063ffffffff16565b5b6103cc6103c2826108db565b8484600254610cf7565b600381905550505050505050505050505050565b600480546103ed90611eab565b80601f016020809104026020016040519081016040528092919081815260200182805461041990611eab565b80156104665780601f1061043b57610100808354040283529160200191610466565b820191906000526020600020905b81548152906001019060200180831161044957829003601f168201915b505050505081565b6005805461047b90611eab565b80601f01602080910402602001604051908101604052809291908181526020018280546104a790611eab565b80156104f45780601f106104c9576101008083540402835291602001916104f4565b820191906000526020600020905b8154815290600101906020018083116104d757829003601f168201915b505050505081565b610504610711565b8060028190555050565b600160009054906101000a900473ffffffffffffffffffffffffffffffffffffffff1673ffffffffffffffffffffffffffffffffffffffff163373ffffffffffffffffffffffffffffffffffffffff161461059e576040517f08c379a000000000000000000000000000000000000000000000000000000000815260040161059590611f39565b60405180910390fd5b60008060009054906101000a900473ffffffffffffffffffffffffffffffffffffffff169050336000806101000a81548173ffffffffffffffffffffffffffffffffffffffff021916908373ffffffffffffffffffffffffffffffffffffffff1602179055506000600160006101000a81548173ffffffffffffffffffffffffffffffffffffffff021916908373ffffffffffffffffffffffffffffffffffffffff1602179055503373ffffffffffffffffffffffffffffffffffffffff168173ffffffffffffffffffffffffffffffffffffffff167f8be0079c531659141344cd1fd0a4f28419497f9722a3daafe3b4186f6b6457e060405160405180910390a350565b60008060009054906101000a900473ffffffffffffffffffffffffffffffffffffffff16905090565b60025481565b60035481565b6106e0610711565b6106e981610dda565b50565b81600490816106fb919061210f565b50806005908161070b919061210f565b50505050565b60008054906101000a900473ffffffffffffffffffffffffffffffffffffffff1673ffffffffffffffffffffffffffffffffffffffff163373ffffffffffffffffffffffffffffffffffffffff161461079f576040517f08c379a00000000000000000000000000000000000000000000000000000000081526004016107969061222d565b60405180910390fd5b565b60008151036107dc576040517f22ce3edd00000000000000000000000000000000000000000000000000000000815260040160405180910390fd5b82846000019060028111156107f4576107f3611c1c565b5b9081600281111561080857610807611c1c565b5b81525050818460400190600081111561082457610823611c1c565b5b9081600081111561083857610837611c1c565b5b8152505080846060018190525050505050565b6000815103610886576040517ffe936cb700000000000000000000000000000000000000000000000000000000815260040160405180910390fd5b808260a001819052505050565b60008151036108ce576040517ffe936cb700000000000000000000000000000000000000000000000000000000815260040160405180910390fd5b808260c001819052505050565b606060006108ea610100610f06565b90506109346040518060400160405280600c81526020017f636f64654c6f636174696f6e000000000000000000000000000000000000000081525082610f2d90919063ffffffff16565b61095d8360000151600281111561094e5761094d611c1c565b5b82610f5690919063ffffffff16565b6109a56040518060400160405280600881526020017f6c616e677561676500000000000000000000000000000000000000000000000081525082610f2d90919063ffffffff16565b6109ce836040015160008111156109bf576109be611c1c565b5b82610f5690919063ffffffff16565b610a166040518060400160405280600681526020017f736f75726365000000000000000000000000000000000000000000000000000081525082610f2d90919063ffffffff16565b610a2d836060015182610f2d90919063ffffffff16565b60008360a00151511115610ae957610a836040518060400160405280600481526020017f617267730000000000000000000000000000000000000000000000000000000081525082610f2d90919063ffffffff16565b610a8c81610fa6565b60005b8360a0015151811015610ade57610acd8460a001518281518110610ab657610ab561224d565b5b602002602001015183610f2d90919063ffffffff16565b80610ad7906122ab565b9050610a8f565b50610ae881610fce565b5b60008360800151511115610c2a5760006002811115610b0b57610b0a611c1c565b5b83602001516002811115610b2257610b21611c1c565b5b03610b59576040517fa80d31f700000000000000000000000000000000000000000000000000000000815260040160405180910390fd5b610ba16040518060400160405280600f81526020017f736563726574734c6f636174696f6e000000000000000000000000000000000081525082610f2d90919063ffffffff16565b610bca83602001516002811115610bbb57610bba611c1c565b5b82610f5690919063ffffffff16565b610c126040518060400160405280600781526020017f736563726574730000000000000000000000000000000000000000000000000081525082610f2d90919063ffffffff16565b610c29836080015182610ff690919063ffffffff16565b5b60008360c00151511115610ce657610c806040518060400160405280600981526020017f627974657341726773000000000000000000000000000000000000000000000081525082610f2d90919063ffffffff16565b610c8981610fa6565b60005b8360c0015151811015610cdb57610cca8460c001518281518110610cb357610cb261224d565b5b602002602001015183610ff690919063ffffffff16565b80610cd4906122ab565b9050610c8c565b50610ce581610fce565b5b806000015160000151915050919050565b6000807f000000000000000000000000000000000000000000000000000000000000000073ffffffffffffffffffffffffffffffffffffffff1663461d27628688600188886040518663ffffffff1660e01b8152600401610d5c95949392919061232e565b6020604051808303816000875af1158015610d7b573d6000803e3d6000fd5b505050506040513d601f19601f82011682018060405250810190610d9f919061239d565b9050807f1131472297a800fee664d1d89cfa8f7676ff07189ecc53f80bbb5f4969099db860405160405180910390a280915050949350505050565b3373ffffffffffffffffffffffffffffffffffffffff168173ffffffffffffffffffffffffffffffffffffffff1603610e48576040517f08c379a0000000000000000000000000000000000000000000000000000000008152600401610e3f90612416565b60405180910390fd5b80600160006101000a81548173ffffffffffffffffffffffffffffffffffffffff021916908373ffffffffffffffffffffffffffffffffffffffff1602179055508073ffffffffffffffffffffffffffffffffffffffff1660008054906101000a900473ffffffffffffffffffffffffffffffffffffffff1673ffffffffffffffffffffffffffffffffffffffff167fed8889f560326eb138920d842192f0eb3dd22b4f139c87a2c57538e05bae127860405160405180910390a350565b610f0e6114f3565b610f1c81600001518361101f565b506000816020018181525050919050565b610f3a8260038351611098565b610f5181836000015161124190919063ffffffff16565b505050565b610f7860026005600660ff16901b17836000015161125d90919063ffffffff16565b50610fa28282604051602001610f8e9190612445565b604051602081830303815290604052610ff6565b5050565b610fb18160046112c7565b600181602001818151610fc49190612460565b9150818152505050565b610fd98160076112c7565b600181602001818151610fec9190612494565b9150818152505050565b6110038260028351611098565b61101a81836000015161124190919063ffffffff16565b505050565b611027611513565b600060208361103691906124f7565b146110625760208261104891906124f7565b60206110549190612494565b8261105f9190612460565b91505b81836020018181525050604051808452600081528281016020018181101561108957600080fd5b80604052505082905092915050565b60178167ffffffffffffffff16116110d3576110cd8160058460ff16901b60ff1617846000015161125d90919063ffffffff16565b5061123c565b60ff8167ffffffffffffffff161161113157611106601860058460ff16901b17846000015161125d90919063ffffffff16565b5061112b8167ffffffffffffffff16600185600001516112ed9092919063ffffffff16565b5061123b565b61ffff8167ffffffffffffffff161161119057611165601960058460ff16901b17846000015161125d90919063ffffffff16565b5061118a8167ffffffffffffffff16600285600001516112ed9092919063ffffffff16565b5061123a565b63ffffffff8167ffffffffffffffff16116111f1576111c6601a60058460ff16901b17846000015161125d90919063ffffffff16565b506111eb8167ffffffffffffffff16600485600001516112ed9092919063ffffffff16565b50611239565b611212601b60058460ff16901b17846000015161125d90919063ffffffff16565b506112378167ffffffffffffffff16600885600001516112ed9092919063ffffffff16565b505b5b5b5b505050565b611249611513565b6112558383845161137a565b905092915050565b611265611513565b60008360000151519050600060018261127e9190612460565b9050846020015182106112a2576112a18560028361129c9190612528565b61145d565b5b845160208382010185815381518311156112ba578282525b5050849250505092915050565b6112e8601f60058360ff16901b17836000015161125d90919063ffffffff16565b505050565b6112f5611513565b600084600001515190506000818461130d9190612460565b90508560200151811115611332576113318660028361132c9190612528565b61145d565b5b6000600185610100611344919061269d565b61134e9190612494565b90508651828101878319825116178152815184111561136b578382525b50508693505050509392505050565b611382611513565b825182111561139057600080fd5b60008460000151519050600083826113a89190612460565b905085602001518111156113cd576113cc866002836113c79190612528565b61145d565b5b600080875180518560208301019350808511156113e8578482525b60208901925050505b6020861061142f578051825260208261140a9190612460565b91506020816114199190612460565b90506020866114289190612494565b95506113f1565b60006001876020036101000a0390508019825116818451168181178552505050879450505050509392505050565b600082600001519050611470838361101f565b5061147b8382611241565b50505050565b6040518060e00160405280600060028111156114a05761149f611c1c565b5b8152602001600060028111156114b9576114b8611c1c565b5b81526020016000808111156114d1576114d0611c1c565b5b8152602001606081526020016060815260200160608152602001606081525090565b6040518060400160405280611506611513565b8152602001600081525090565b604051806040016040528060608152602001600081525090565b6000604051905090565b600080fd5b600080fd5b6000819050919050565b61155481611541565b811461155f57600080fd5b50565b6000813590506115718161154b565b92915050565b600080fd5b600080fd5b6000601f19601f8301169050919050565b7f4e487b7100000000000000000000000000000000000000000000000000000000600052604160045260246000fd5b6115ca82611581565b810181811067ffffffffffffffff821117156115e9576115e8611592565b5b80604052505050565b60006115fc61152d565b905061160882826115c1565b919050565b600067ffffffffffffffff82111561162857611627611592565b5b61163182611581565b9050602081019050919050565b82818337600083830152505050565b600061166061165b8461160d565b6115f2565b90508281526020810184848401111561167c5761167b61157c565b5b61168784828561163e565b509392505050565b600082601f8301126116a4576116a3611577565b5b81356116b484826020860161164d565b91505092915050565b6000806000606084860312156116d6576116d5611537565b5b60006116e486828701611562565b935050602084013567ffffffffffffffff8111156117055761170461153c565b5b6117118682870161168f565b925050604084013567ffffffffffffffff8111156117325761173161153c565b5b61173e8682870161168f565b9150509250925092565b600080fd5b600080fd5b60008083601f84011261176857611767611577565b5b8235905067ffffffffffffffff81111561178557611784611748565b5b6020830191508360018202830111156117a1576117a061174d565b5b9250929050565b600381106117b557600080fd5b50565b6000813590506117c7816117a8565b92915050565b60008083601f8401126117e3576117e2611577565b5b8235905067ffffffffffffffff811115611800576117ff611748565b5b60208301915083600182028301111561181c5761181b61174d565b5b9250929050565b60008083601f84011261183957611838611577565b5b8235905067ffffffffffffffff81111561185657611855611748565b5b6020830191508360208202830111156118725761187161174d565b5b9250929050565b60008083601f84011261188f5761188e611577565b5b8235905067ffffffffffffffff8111156118ac576118ab611748565b5b6020830191508360208202830111156118c8576118c761174d565b5b9250929050565b600067ffffffffffffffff82169050919050565b6118ec816118cf565b81146118f757600080fd5b50565b600081359050611909816118e3565b92915050565b600063ffffffff82169050919050565b6119288161190f565b811461193357600080fd5b50565b6000813590506119458161191f565b92915050565b600080600080600080600080600080600060e08c8e0312156119705761196f611537565b5b60008c013567ffffffffffffffff81111561198e5761198d61153c565b5b61199a8e828f01611752565b9b509b505060206119ad8e828f016117b8565b99505060408c013567ffffffffffffffff8111156119ce576119cd61153c565b5b6119da8e828f016117cd565b985098505060608c013567ffffffffffffffff8111156119fd576119fc61153c565b5b611a098e828f01611823565b965096505060808c013567ffffffffffffffff811115611a2c57611a2b61153c565b5b611a388e828f01611879565b945094505060a0611a4b8e828f016118fa565b92505060c0611a5c8e828f01611936565b9150509295989b509295989b9093969950565b600081519050919050565b600082825260208201905092915050565b60005b83811015611aa9578082015181840152602081019050611a8e565b60008484015250505050565b6000611ac082611a6f565b611aca8185611a7a565b9350611ada818560208601611a8b565b611ae381611581565b840191505092915050565b60006020820190508181036000830152611b088184611ab5565b905092915050565b600060208284031215611b2657611b25611537565b5b6000611b3484828501611562565b91505092915050565b600073ffffffffffffffffffffffffffffffffffffffff82169050919050565b6000611b6882611b3d565b9050919050565b611b7881611b5d565b82525050565b6000602082019050611b936000830184611b6f565b92915050565b611ba281611541565b82525050565b6000602082019050611bbd6000830184611b99565b92915050565b611bcc81611b5d565b8114611bd757600080fd5b50565b600081359050611be981611bc3565b92915050565b600060208284031215611c0557611c04611537565b5b6000611c1384828501611bda565b91505092915050565b7f4e487b7100000000000000000000000000000000000000000000000000000000600052602160045260246000fd5b600067ffffffffffffffff821115611c6657611c65611592565b5b602082029050602081019050919050565b600067ffffffffffffffff821115611c9257611c91611592565b5b611c9b82611581565b9050602081019050919050565b6000611cbb611cb684611c77565b6115f2565b905082815260208101848484011115611cd757611cd661157c565b5b611ce284828561163e565b509392505050565b600082601f830112611cff57611cfe611577565b5b8135611d0f848260208601611ca8565b91505092915050565b6000611d2b611d2684611c4b565b6115f2565b90508083825260208201905060208402830185811115611d4e57611d4d61174d565b5b835b81811015611d9557803567ffffffffffffffff811115611d7357611d72611577565b5b808601611d808982611cea565b85526020850194505050602081019050611d50565b5050509392505050565b6000611dac368484611d18565b905092915050565b600067ffffffffffffffff821115611dcf57611dce611592565b5b602082029050602081019050919050565b6000611df3611dee84611db4565b6115f2565b90508083825260208201905060208402830185811115611e1657611e1561174d565b5b835b81811015611e5d57803567ffffffffffffffff811115611e3b57611e3a611577565b5b808601611e48898261168f565b85526020850194505050602081019050611e18565b5050509392505050565b6000611e74368484611de0565b905092915050565b7f4e487b7100000000000000000000000000000000000000000000000000000000600052602260045260246000fd5b60006002820490506001821680611ec357607f821691505b602082108103611ed657611ed5611e7c565b5b50919050565b600082825260208201905092915050565b7f4d7573742062652070726f706f736564206f776e657200000000000000000000600082015250565b6000611f23601683611edc565b9150611f2e82611eed565b602082019050919050565b60006020820190508181036000830152611f5281611f16565b9050919050565b60008190508160005260206000209050919050565b60006020601f8301049050919050565b600082821b905092915050565b600060088302611fbb7fffffffffffffffffffffffffffffffffffffffffffffffffffffffffffffffff82611f7e565b611fc58683611f7e565b95508019841693508086168417925050509392505050565b6000819050919050565b6000819050919050565b600061200c61200761200284611fdd565b611fe7565b611fdd565b9050919050565b6000819050919050565b61202683611ff1565b61203a61203282612013565b848454611f8b565b825550505050565b600090565b61204f612042565b61205a81848461201d565b505050565b5b8181101561207e57612073600082612047565b600181019050612060565b5050565b601f8211156120c35761209481611f59565b61209d84611f6e565b810160208510156120ac578190505b6120c06120b885611f6e565b83018261205f565b50505b505050565b600082821c905092915050565b60006120e6600019846008026120c8565b1980831691505092915050565b60006120ff83836120d5565b9150826002028217905092915050565b61211882611a6f565b67ffffffffffffffff81111561213157612130611592565b5b61213b8254611eab565b612146828285612082565b600060209050601f8311600181146121795760008415612167578287015190505b61217185826120f3565b8655506121d9565b601f19841661218786611f59565b60005b828110156121af5784890151825560018201915060208501945060208101905061218a565b868310156121cc57848901516121c8601f8916826120d5565b8355505b6001600288020188555050505b505050505050565b7f4f6e6c792063616c6c61626c65206279206f776e657200000000000000000000600082015250565b6000612217601683611edc565b9150612222826121e1565b602082019050919050565b600060208201905081810360008301526122468161220a565b9050919050565b7f4e487b7100000000000000000000000000000000000000000000000000000000600052603260045260246000fd5b7f4e487b7100000000000000000000000000000000000000000000000000000000600052601160045260246000fd5b60006122b682611fdd565b91507fffffffffffffffffffffffffffffffffffffffffffffffffffffffffffffffff82036122e8576122e761227c565b5b600182019050919050565b6122fc816118cf565b82525050565b600061ffff82169050919050565b61231981612302565b82525050565b6123288161190f565b82525050565b600060a08201905061234360008301886122f3565b81810360208301526123558187611ab5565b90506123646040830186612310565b612371606083018561231f565b61237e6080830184611b99565b9695505050505050565b6000815190506123978161154b565b92915050565b6000602082840312156123b3576123b2611537565b5b60006123c184828501612388565b91505092915050565b7f43616e6e6f74207472616e7366657220746f2073656c66000000000000000000600082015250565b6000612400601783611edc565b915061240b826123ca565b602082019050919050565b6000602082019050818103600083015261242f816123f3565b9050919050565b61243f81611fdd565b82525050565b600060208201905061245a6000830184612436565b92915050565b600061246b82611fdd565b915061247683611fdd565b925082820190508082111561248e5761248d61227c565b5b92915050565b600061249f82611fdd565b91506124aa83611fdd565b92508282039050818111156124c2576124c161227c565b5b92915050565b7f4e487b7100000000000000000000000000000000000000000000000000000000600052601260045260246000fd5b600061250282611fdd565b915061250d83611fdd565b92508261251d5761251c6124c8565b5b828206905092915050565b600061253382611fdd565b915061253e83611fdd565b925082820261254c81611fdd565b915082820484148315176125635761256261227c565b5b5092915050565b60008160011c9050919050565b6000808291508390505b60018511156125c15780860481111561259d5761259c61227c565b5b60018516156125ac5780820291505b80810290506125ba8561256a565b9450612581565b94509492505050565b6000826125da5760019050612696565b816125e85760009050612696565b81600181146125fe576002811461260857612637565b6001915050612696565b60ff84111561261a5761261961227c565b5b8360020a9150848211156126315761263061227c565b5b50612696565b5060208310610133831016604e8410600b841016171561266c5782820a9050838111156126675761266661227c565b5b612696565b6126798484846001612577565b925090508184048111156126905761268f61227c565b5b81810290505b9392505050565b60006126a882611fdd565b91506126b383611fdd565b92506126e07fffffffffffffffffffffffffffffffffffffffffffffffffffffffffffffffff84846125ca565b90509291505056fea2646970667358221220d728d68064a7c6ea2a5de564089d4f99861ed47aa04481886945e7523a01f0ac64736f6c63430008140033",
  "linkReferences": {},
  "deployedLinkReferences": {}
}