{
  "_format": "hh-sol-artifact-1",
  "contractName": "ARCFunctionsConsumer",
  "sourceName": "contracts/ARCFunctionsConsumer.sol",
  "abi": [
    {
      "inputs": [],
      "stateMutability": "nonpayable",
      "type": "constructor"
    },
    {
      "anonymous": false,
      "inputs": [
        {
          "indexed": false,
          "internalType": "bytes",
          "name": "result",
          "type": "bytes"
        },
        {
          "indexed": false,
          "internalType": "bytes",
          "name": "err",
          "type": "bytes"
        }
      ],
      "name": "OCRResponse",
      "type": "event"
    },
    {
      "anonymous": false,
      "inputs": [
        {
          "indexed": true,
          "internalType": "address",
          "name": "from",
          "type": "address"
        },
        {
          "indexed": true,
          "internalType": "address",
          "name": "to",
          "type": "address"
        }
      ],
      "name": "OwnershipTransferRequested",
      "type": "event"
    },
    {
      "anonymous": false,
      "inputs": [
        {
          "indexed": true,
          "internalType": "address",
          "name": "from",
          "type": "address"
        },
        {
          "indexed": true,
          "internalType": "address",
          "name": "to",
          "type": "address"
        }
      ],
      "name": "OwnershipTransferred",
      "type": "event"
    },
    {
      "inputs": [],
      "name": "acceptOwnership",
      "outputs": [],
      "stateMutability": "nonpayable",
      "type": "function"
    },
    {
      "inputs": [],
      "name": "functionsRouter",
      "outputs": [
        {
          "internalType": "address",
          "name": "",
          "type": "address"
        }
      ],
      "stateMutability": "view",
      "type": "function"
    },
    {
      "inputs": [],
      "name": "gasLimit",
      "outputs": [
        {
          "internalType": "uint32",
          "name": "",
          "type": "uint32"
        }
      ],
      "stateMutability": "view",
      "type": "function"
    },
    {
      "inputs": [],
      "name": "latestError",
      "outputs": [
        {
          "internalType": "bytes",
          "name": "",
          "type": "bytes"
        }
      ],
      "stateMutability": "view",
      "type": "function"
    },
    {
      "inputs": [],
      "name": "latestRequestId",
      "outputs": [
        {
          "internalType": "bytes32",
          "name": "",
          "type": "bytes32"
        }
      ],
      "stateMutability": "view",
      "type": "function"
    },
    {
      "inputs": [],
      "name": "latestResponse",
      "outputs": [
        {
          "internalType": "string",
          "name": "",
          "type": "string"
        }
      ],
      "stateMutability": "view",
      "type": "function"
    },
    {
      "inputs": [
        {
          "internalType": "string",
          "name": "responseText",
          "type": "string"
        }
      ],
      "name": "mockFulfill",
      "outputs": [],
      "stateMutability": "nonpayable",
      "type": "function"
    },
    {
      "inputs": [],
      "name": "owner",
      "outputs": [
        {
          "internalType": "address",
          "name": "",
          "type": "address"
        }
      ],
      "stateMutability": "view",
      "type": "function"
    },
    {
      "inputs": [],
      "name": "sendRequest",
      "outputs": [
        {
          "internalType": "bytes32",
          "name": "requestId",
          "type": "bytes32"
        }
      ],
      "stateMutability": "nonpayable",
      "type": "function"
    },
    {
      "inputs": [
        {
          "internalType": "string",
          "name": "_source",
          "type": "string"
        }
      ],
      "name": "setSource",
      "outputs": [],
      "stateMutability": "nonpayable",
      "type": "function"
    },
    {
      "inputs": [
        {
          "internalType": "uint64",
          "name": "_subscriptionId",
          "type": "uint64"
        }
      ],
      "name": "setSubscriptionId",
      "outputs": [],
      "stateMutability": "nonpayable",
      "type": "function"
    },
    {
      "inputs": [],
      "name": "source",
      "outputs": [
        {
          "internalType": "string",
          "name": "",
          "type": "string"
        }
      ],
      "stateMutability": "view",
      "type": "function"
    },
    {
      "inputs": [],
      "name": "subscriptionId",
      "outputs": [
        {
          "internalType": "uint64",
          "name": "",
          "type": "uint64"
        }
      ],
      "stateMutability": "view",
      "type": "function"
    },
    {
      "inputs": [
        {
          "internalType": "address",
          "name": "to",
          "type": "address"
        }
      ],
      "name": "transferOwnership",
      "outputs": [],
      "stateMutability": "nonpayable",
      "type": "function"
    },
    {
      "inputs": [
        {
          "internalType": "address",
          "name": "_newRouter",
          "type": "address"
        }
      ],
      "name": "updateRouter",
      "outputs": [],
      "stateMutability": "nonpayable",
      "type": "function"
    }
  ],
  "bytecode": "0x60806040526006805463ffffffff60401b19166a0493e0000000000000000017905534801561002d57600080fd5b50600080546001600160a01b031916738c809b9fc1d9ff3df304f9cc06aa94f5e47e5a4417815533908190816100aa5760405162461bcd60e51b815260206004820152601860248201527f43616e6e6f7420736574206f776e657220746f207a65726f000000000000000060448201526064015b60405180910390fd5b600180546001600160a01b0319166001600160a01b03848116919091179091558116156100da576100da816100e2565b50505061018c565b336001600160a01b0382160361013a5760405162461bcd60e51b815260206004820152601760248201527f43616e6e6f74207472616e7366657220746f2073656c6600000000000000000060448201526064016100a1565b600280546001600160a01b0319166001600160a01b03838116918217909255600154604051919216907fed8889f560326eb138920d842192f0eb3dd22b4f139c87a2c57538e05bae127890600090a350565b610b0b8061019b6000396000f3fe608060405234801561001057600080fd5b50600436106100f55760003560e01c806399d2545511610097578063ea7b4f7711610066578063ea7b4f77146101e3578063f2fde38b146101f6578063f68016b714610209578063fffeb84e1461023557600080fd5b806399d25455146101a2578063bef3a2f0146101b5578063c851cc32146101bd578063d58f05da146101d057600080fd5b806367e828bf116100d357806367e828bf1461014b57806379ba50971461016057806387acbcc01461016a5780638da5cb5b1461017d57600080fd5b806309c1ba2e146100fa5780631aa46f591461012c5780631bee2f2a14610143575b600080fd5b60065461010e9067ffffffffffffffff1681565b60405167ffffffffffffffff90911681526020015b60405180910390f35b61013560055481565b604051908152602001610123565b61013561023d565b61015361035a565b6040516101239190610806565b6101686103e8565b005b610168610178366004610836565b61049b565b6001546001600160a01b03165b6040516001600160a01b039091168152602001610123565b6101686101b0366004610836565b6104f6565b61015361050e565b6101686101cb3660046108e7565b61051b565b60005461018a906001600160a01b031681565b6101686101f1366004610910565b610590565b6101686102043660046108e7565b6105bc565b60065461022090600160401b900463ffffffff1681565b60405163ffffffff9091168152602001610123565b6101536105d0565b60006102476105dd565b61027f6040805160c0810190915280600081526020016000815260606020820181905260408201819052808201526080016000905290565b61031c6007805461028f9061093a565b80601f01602080910402602001604051908101604052809291908181526020018280546102bb9061093a565b80156103085780601f106102dd57610100808354040283529160200191610308565b820191906000526020600020905b8154815290600101906020018083116102eb57829003601f168201915b50505050508261063290919063ffffffff16565b50600061034e61032d836040015190565b60065467ffffffffffffffff811690600160401b900463ffffffff1661067d565b60058190559250505090565b600780546103679061093a565b80601f01602080910402602001604051908101604052809291908181526020018280546103939061093a565b80156103e05780601f106103b5576101008083540402835291602001916103e0565b820191906000526020600020905b8154815290600101906020018083116103c357829003601f168201915b505050505081565b6002546001600160a01b031633146104405760405162461bcd60e51b815260206004820152601660248201527526bab9ba10313290383937b837b9b2b21037bbb732b960511b60448201526064015b60405180910390fd5b600180546001600160a01b0319808216339081179093556002805490911690556040516001600160a01b03909116919082907f8be0079c531659141344cd1fd0a4f28419497f9722a3daafe3b4186f6b6457e090600090a350565b6104a36105dd565b604051636d6f636b60e01b602082015242602482015260009060440160408051601f19818403018152828252805160209182012090830190915260008252915082906104f08383836106b4565b50505050565b6104fe6105dd565b600761050a82826109c5565b5050565b600380546103679061093a565b6000546001600160a01b0316331461056e5760405162461bcd60e51b81526020600482015260166024820152754f6e6c7920726f757465722063616e2075706461746560501b6044820152606401610437565b600080546001600160a01b0319166001600160a01b0392909216919091179055565b6105986105dd565b6006805467ffffffffffffffff191667ffffffffffffffff92909216919091179055565b6105c46105dd565b6105cd8161070c565b50565b600480546103679061093a565b6001546001600160a01b031633146106305760405162461bcd60e51b815260206004820152601660248201527527b7363c9031b0b63630b1363290313c9037bbb732b960511b6044820152606401610437565b565b61066a6040805160c0810190915280600081526020016000815260606020820181905260408201819052808201526080016000905290565b5060008083526020830152604082015290565b6000808442604051602001610693929190610a85565b60408051808303601f19018152919052805160209091012095945050505050565b60036106c083826109c5565b5060046106cd82826109c5565b507f99ce833e5ae8c00125986f55d9bd6e8db6cccd52f82429960b4ee443fbe8ecdf82826040516106ff929190610aa7565b60405180910390a1505050565b336001600160a01b038216036107645760405162461bcd60e51b815260206004820152601760248201527f43616e6e6f74207472616e7366657220746f2073656c660000000000000000006044820152606401610437565b600280546001600160a01b0319166001600160a01b03838116918217909255600154604051919216907fed8889f560326eb138920d842192f0eb3dd22b4f139c87a2c57538e05bae127890600090a350565b60005b838110156107d15781810151838201526020016107b9565b50506000910152565b600081518084526107f28160208601602086016107b6565b601f01601f19169290920160200192915050565b60208152600061081960208301846107da565b9392505050565b634e487b7160e01b600052604160045260246000fd5b60006020828403121561084857600080fd5b813567ffffffffffffffff8082111561086057600080fd5b818401915084601f83011261087457600080fd5b81358181111561088657610886610820565b604051601f8201601f19908116603f011681019083821181831017156108ae576108ae610820565b816040528281528760208487010111156108c757600080fd5b826020860160208301376000928101602001929092525095945050505050565b6000602082840312156108f957600080fd5b81356001600160a01b038116811461081957600080fd5b60006020828403121561092257600080fd5b813567ffffffffffffffff8116811461081957600080fd5b600181811c9082168061094e57607f821691505b60208210810361096e57634e487b7160e01b600052602260045260246000fd5b50919050565b601f8211156109c0576000816000526020600020601f850160051c8101602086101561099d5750805b601f850160051c820191505b818110156109bc578281556001016109a9565b5050505b505050565b815167ffffffffffffffff8111156109df576109df610820565b6109f3816109ed845461093a565b84610974565b602080601f831160018114610a285760008415610a105750858301515b600019600386901b1c1916600185901b1785556109bc565b600085815260208120601f198616915b82811015610a5757888601518255948401946001909101908401610a38565b5085821015610a755787850151600019600388901b60f8161c191681555b5050505050600190811b01905550565b60008351610a978184602088016107b6565b9190910191825250602001919050565b604081526000610aba60408301856107da565b8281036020840152610acc81856107da565b9594505050505056fea26469706673582212203cef5b4da0eb3831975a2a81a3f79bc3282df4930deba1c763936bb9b2ab344064736f6c63430008180033",
  "linkReferences": {},
  "deployedLinkReferences": {}
}