{
  "_format": "hh-sol-artifact-1",
  "contractName": "ARCSubscription",
  "sourceName": "contracts/ARCSubscription.sol",
  "abi": [
    {
      "inputs": [],
      "stateMutability": "nonpayable",
      "type": "constructor"
    },
    {
      "anonymous": false,
      "inputs": [
        {
          "indexed": true,
          "internalType": "address",
          "name": "previousOwner",
          "type": "address"
        },
        {
          "indexed": true,
          "internalType": "address",
          "name": "newOwner",
          "type": "address"
        }
      ],
      "name": "OwnershipTransferred",
      "type": "event"
    },
    {
      "anonymous": false,
      "inputs": [
        {
          "indexed": false,
          "internalType": "address",
          "name": "account",
          "type": "address"
        }
      ],
      "name": "Paused",
      "type": "event"
    },
    {
      "anonymous": false,
      "inputs": [
        {
          "indexed": true,
          "internalType": "address",
          "name": "user",
          "type": "address"
        },
        {
          "indexed": false,
          "internalType": "string",
          "name": "cropType",
          "type": "string"
        },
        {
          "indexed": false,
          "internalType": "uint256",
          "name": "hectares",
          "type": "uint256"
        },
        {
          "indexed": false,
          "internalType": "uint256",
          "name": "premium",
          "type": "uint256"
        },
        {
          "indexed": false,
          "internalType": "uint256",
          "name": "payout",
          "type": "uint256"
        },
        {
          "indexed": false,
          "internalType": "string",
          "name": "paymentMethod",
          "type": "string"
        }
      ],
      "name": "Subscribed",
      "type": "event"
    },
    {
      "anonymous": false,
      "inputs": [
        {
          "indexed": false,
          "internalType": "address",
          "name": "account",
          "type": "address"
        }
      ],
      "name": "Unpaused",
      "type": "event"
    },
    {
      "inputs": [
        {
          "internalType": "address",
          "name": "user",
          "type": "address"
        }
      ],
      "name": "getSubscriptions",
      "outputs": [
        {
          "components": [
            {
              "internalType": "address",
              "name": "user",
              "type": "address"
            },
            {
              "internalType": "address",
              "name": "token",
              "type": "address"
            },
            {
              "internalType": "string",
              "name": "cropType",
              "type": "string"
            },
            {
              "internalType": "uint256",
              "name": "hectares",
              "type": "uint256"
            },
            {
              "internalType": "uint256",
              "name": "pricePerKg",
              "type": "uint256"
            },
            {
              "internalType": "uint256",
              "name": "riskIndex",
              "type": "uint256"
            },
            {
              "internalType": "uint256",
              "name": "premium",
              "type": "uint256"
            },
            {
              "internalType": "uint256",
              "name": "payout",
              "type": "uint256"
            },
            {
              "internalType": "bool",
              "name": "paidInETH",
              "type": "bool"
            },
            {
              "internalType": "bool",
              "name": "active",
              "type": "bool"
            }
          ],
          "internalType": "struct ARCSubscription.Subscription[]",
          "name": "",
          "type": "tuple[]"
        }
      ],
      "stateMutability": "view",
      "type": "function"
    },
    {
      "inputs": [],
      "name": "owner",
      "outputs": [
        {
          "internalType": "address",
          "name": "",
          "type": "address"
        }
      ],
      "stateMutability": "view",
      "type": "function"
    },
    {
      "inputs": [],
      "name": "pause",
      "outputs": [],
      "stateMutability": "nonpayable",
      "type": "function"
    },
    {
      "inputs": [],
      "name": "paused",
      "outputs": [
        {
          "internalType": "bool",
          "name": "",
          "type": "bool"
        }
      ],
      "stateMutability": "view",
      "type": "function"
    },
    {
      "inputs": [],
      "name": "renounceOwnership",
      "outputs": [],
      "stateMutability": "nonpayable",
      "type": "function"
    },
    {
      "inputs": [
        {
          "internalType": "string",
          "name": "cropType",
          "type": "string"
        },
        {
          "internalType": "uint256",
          "name": "hectares",
          "type": "uint256"
        },
        {
          "internalType": "uint256",
          "name": "pricePerKg",
          "type": "uint256"
        },
        {
          "internalType": "uint256",
          "name": "riskIndex",
          "type": "uint256"
        }
      ],
      "name": "subscribeETH",
      "outputs": [],
      "stateMutability": "payable",
      "type": "function"
    },
    {
      "inputs": [
        {
          "internalType": "address",
          "name": "token",
          "type": "address"
        },
        {
          "internalType": "string",
          "name": "cropType",
          "type": "string"
        },
        {
          "internalType": "uint256",
          "name": "hectares",
          "type": "uint256"
        },
        {
          "internalType": "uint256",
          "name": "pricePerKg",
          "type": "uint256"
        },
        {
          "internalType": "uint256",
          "name": "riskIndex",
          "type": "uint256"
        }
      ],
      "name": "subscribeUSDC",
      "outputs": [],
      "stateMutability": "nonpayable",
      "type": "function"
    },
    {
      "inputs": [
        {
          "internalType": "address",
          "name": "token",
          "type": "address"
        },
        {
          "internalType": "string",
          "name": "cropType",
          "type": "string"
        },
        {
          "internalType": "uint256",
          "name": "hectares",
          "type": "uint256"
        },
        {
          "internalType": "uint256",
          "name": "pricePerKg",
          "type": "uint256"
        },
        {
          "internalType": "uint256",
          "name": "riskIndex",
          "type": "uint256"
        }
      ],
      "name": "subscribeUSDT",
      "outputs": [],
      "stateMutability": "nonpayable",
      "type": "function"
    },
    {
      "inputs": [
        {
          "internalType": "address",
          "name": "",
          "type": "address"
        },
        {
          "internalType": "uint256",
          "name": "",
          "type": "uint256"
        }
      ],
      "name": "subscriptions",
      "outputs": [
        {
          "internalType": "address",
          "name": "user",
          "type": "address"
        },
        {
          "internalType": "address",
          "name": "token",
          "type": "address"
        },
        {
          "internalType": "string",
          "name": "cropType",
          "type": "string"
        },
        {
          "internalType": "uint256",
          "name": "hectares",
          "type": "uint256"
        },
        {
          "internalType": "uint256",
          "name": "pricePerKg",
          "type": "uint256"
        },
        {
          "internalType": "uint256",
          "name": "riskIndex",
          "type": "uint256"
        },
        {
          "internalType": "uint256",
          "name": "premium",
          "type": "uint256"
        },
        {
          "internalType": "uint256",
          "name": "payout",
          "type": "uint256"
        },
        {
          "internalType": "bool",
          "name": "paidInETH",
          "type": "bool"
        },
        {
          "internalType": "bool",
          "name": "active",
          "type": "bool"
        }
      ],
      "stateMutability": "view",
      "type": "function"
    },
    {
      "inputs": [
        {
          "internalType": "address",
          "name": "newOwner",
          "type": "address"
        }
      ],
      "name": "transferOwnership",
      "outputs": [],
      "stateMutability": "nonpayable",
      "type": "function"
    },
    {
      "inputs": [],
      "name": "unpause",
      "outputs": [],
      "stateMutability": "nonpayable",
      "type": "function"
    }
  ],
  "bytecode": "0x608060405234801561001057600080fd5b5061001a33610030565b6000805460ff60a01b1916905560018055610080565b600080546001600160a01b038381166001600160a01b0319831681178455604051919092169283917f8be0079c531659141344cd1fd0a4f28419497f9722a3daafe3b4186f6b6457e09190a35050565b6114128061008f6000396000f3fe60806040526004361061009c5760003560e01c80638456cb59116100645780638456cb591461015f5780638da5cb5b14610174578063c5f2b8771461019c578063ca5f6e56146101bc578063e7258106146101cf578063f2fde38b146101ef57600080fd5b80633f4ba83a146100a15780635c975abb146100b85780635d6a4413146100e7578063623da3d114610114578063715018a61461014a575b600080fd5b3480156100ad57600080fd5b506100b661020f565b005b3480156100c457600080fd5b50600054600160a01b900460ff1660405190151581526020015b60405180910390f35b3480156100f357600080fd5b50610107610102366004610dfe565b610221565b6040516100de9190610e66565b34801561012057600080fd5b5061013461012f366004610f4a565b6103a3565b6040516100de9a99989796959493929190610f74565b34801561015657600080fd5b506100b66104ae565b34801561016b57600080fd5b506100b66104c0565b34801561018057600080fd5b506000546040516001600160a01b0390911681526020016100de565b3480156101a857600080fd5b506100b66101b7366004611083565b6104d0565b6100b66101ca3660046110ec565b610707565b3480156101db57600080fd5b506100b66101ea366004611083565b610914565b3480156101fb57600080fd5b506100b661020a366004610dfe565b610b31565b610217610baa565b61021f610c04565b565b6001600160a01b0381166000908152600260209081526040808320805482518185028101850190935280835260609492939192909184015b8282101561039857600084815260209081902060408051610140810182526009860290920180546001600160a01b03908116845260018201541693830193909352600283018054929392918401916102b090611140565b80601f01602080910402602001604051908101604052809291908181526020018280546102dc90611140565b80156103295780601f106102fe57610100808354040283529160200191610329565b820191906000526020600020905b81548152906001019060200180831161030c57829003601f168201915b50505091835250506003820154602080830191909152600483015460408301526005830154606083015260068301546080830152600783015460a083015260089092015460ff808216151560c084015261010090910416151560e0909101529082526001929092019101610259565b505050509050919050565b600260205281600052604060002081815481106103bf57600080fd5b60009182526020909120600990910201805460018201546002830180546001600160a01b0393841696509190921693506103f890611140565b80601f016020809104026020016040519081016040528092919081815260200182805461042490611140565b80156104715780601f1061044657610100808354040283529160200191610471565b820191906000526020600020905b81548152906001019060200180831161045457829003601f168201915b5050506003840154600485015460058601546006870154600788015460089098015496979396929550909350919060ff808216916101009004168a565b6104b6610baa565b61021f6000610c59565b6104c8610baa565b61021f610ca9565b6104d8610cec565b6104e0610d39565b60006104ed826001611190565b6104f885600a6111a9565b61050291906111a9565b9050600061051084866111a9565b61051b9060646111a9565b6040516323b872dd60e01b8152336004820152306024820152604481018490529091506001600160a01b038816906323b872dd906064016020604051808303816000875af1158015610571573d6000803e3d6000fd5b505050506040513d601f19601f8201168201806040525081019061059591906111c0565b503360008181526002602081815260408084208151610140810183529586526001600160a01b038d81168785019081529287018d8152606088018d9052608088018c905260a088018b905260c088018a905260e088018990526101008801879052600161012089018190528354808201855593885294909620875160099093020180549282166001600160a01b0319938416178155925193830180549490911693909116929092179091559151908201906106509082611233565b50606082015160038201556080820151600482015560a0820151600582015560c0820151600682015560e0820151600782015561010080830151600890920180546101209094015161ffff1990941692151561ff001916929092179215150291909117905560405133907fcd781fcc65ecda7cc12e25b300ba5b80f4a4fdc2268cf9be23094b81d6344d00906106ed9089908990879087906112f3565b60405180910390a2505061070060018055565b5050505050565b61070f610cec565b610717610d39565b6000610724826001611190565b61072f85600a6111a9565b61073991906111a9565b9050600061074784866111a9565b6107529060646111a9565b9050813410156107a95760405162461bcd60e51b815260206004820152601760248201527f4d6f6e74616e742045544820696e737566666973616e7400000000000000000060448201526064015b60405180910390fd5b3360008181526002602081815260408084208151610140810183529586528583018581529186018c8152606087018c9052608087018b905260a087018a905260c0870189905260e087018890526001610100880181905261012088018190528254808201845592875293909520865160099092020180546001600160a01b03199081166001600160a01b03938416178255925193810180549093169390911692909217905591519082019061085e9082611233565b50606082015160038201556080820151600482015560a0820151600582015560c0820151600682015560e0820151600782015561010080830151600890920180546101209094015161ffff1990941692151561ff001916929092179215150291909117905560405133907fcd781fcc65ecda7cc12e25b300ba5b80f4a4fdc2268cf9be23094b81d6344d00906108fb908990899087908790611341565b60405180910390a2505061090e60018055565b50505050565b61091c610cec565b610924610d39565b6000610931826001611190565b61093c85600a6111a9565b61094691906111a9565b9050600061095484866111a9565b61095f9060646111a9565b6040516323b872dd60e01b8152336004820152306024820152604481018490529091506001600160a01b038816906323b872dd906064016020604051808303816000875af11580156109b5573d6000803e3d6000fd5b505050506040513d601f19601f820116820180604052508101906109d991906111c0565b503360008181526002602081815260408084208151610140810183529586526001600160a01b038d81168785019081529287018d8152606088018d9052608088018c905260a088018b905260c088018a905260e088018990526101008801879052600161012089018190528354808201855593885294909620875160099093020180549282166001600160a01b031993841617815592519383018054949091169390911692909217909155915190820190610a949082611233565b50606082015160038201556080820151600482015560a0820151600582015560c0820151600682015560e0820151600782015561010080830151600890920180546101209094015161ffff1990941692151561ff001916929092179215150291909117905560405133907fcd781fcc65ecda7cc12e25b300ba5b80f4a4fdc2268cf9be23094b81d6344d00906106ed90899089908790879061138e565b610b39610baa565b6001600160a01b038116610b9e5760405162461bcd60e51b815260206004820152602660248201527f4f776e61626c653a206e6577206f776e657220697320746865207a65726f206160448201526564647265737360d01b60648201526084016107a0565b610ba781610c59565b50565b6000546001600160a01b0316331461021f5760405162461bcd60e51b815260206004820181905260248201527f4f776e61626c653a2063616c6c6572206973206e6f7420746865206f776e657260448201526064016107a0565b610c0c610d92565b6000805460ff60a01b191690557f5db9ee0a495bf2e6ff9c91a7834c1ba4fdd244a5e8aa4e537bd38aeae4b073aa335b6040516001600160a01b03909116815260200160405180910390a1565b600080546001600160a01b038381166001600160a01b0319831681178455604051919092169283917f8be0079c531659141344cd1fd0a4f28419497f9722a3daafe3b4186f6b6457e09190a35050565b610cb1610cec565b6000805460ff60a01b1916600160a01b1790557f62e78cea01bee320cd4e420270b5ea74000d11b0c9f74754ebdbfc544b05a258610c3c3390565b600054600160a01b900460ff161561021f5760405162461bcd60e51b815260206004820152601060248201526f14185d5cd8589b194e881c185d5cd95960821b60448201526064016107a0565b600260015403610d8b5760405162461bcd60e51b815260206004820152601f60248201527f5265656e7472616e637947756172643a207265656e7472616e742063616c6c0060448201526064016107a0565b6002600155565b600054600160a01b900460ff1661021f5760405162461bcd60e51b815260206004820152601460248201527314185d5cd8589b194e881b9bdd081c185d5cd95960621b60448201526064016107a0565b80356001600160a01b0381168114610df957600080fd5b919050565b600060208284031215610e1057600080fd5b610e1982610de2565b9392505050565b6000815180845260005b81811015610e4657602081850181015186830182015201610e2a565b506000602082860101526020601f19601f83011685010191505092915050565b600060208083018184528085518083526040925060408601915060408160051b87010184880160005b83811015610f3c57888303603f19018552815180516001600160a01b03168452610140818901516001600160a01b038116868b015250878201518189870152610eda82870182610e20565b606084810151908801526080808501519088015260a0808501519088015260c0808501519088015260e0808501519088015261010080850151151590880152610120938401511515939096019290925250509386019390860190600101610e8f565b509098975050505050505050565b60008060408385031215610f5d57600080fd5b610f6683610de2565b946020939093013593505050565b6001600160a01b038b811682528a16602082015261014060408201819052600090610fa18382018c610e20565b606084019a909a525050608081019690965260a086019490945260c085019290925260e084015215156101008301521515610120909101529392505050565b634e487b7160e01b600052604160045260246000fd5b600082601f83011261100757600080fd5b813567ffffffffffffffff8082111561102257611022610fe0565b604051601f8301601f19908116603f0116810190828211818310171561104a5761104a610fe0565b8160405283815286602085880101111561106357600080fd5b836020870160208301376000602085830101528094505050505092915050565b600080600080600060a0868803121561109b57600080fd5b6110a486610de2565b9450602086013567ffffffffffffffff8111156110c057600080fd5b6110cc88828901610ff6565b959895975050505060408401359360608101359360809091013592509050565b6000806000806080858703121561110257600080fd5b843567ffffffffffffffff81111561111957600080fd5b61112587828801610ff6565b97602087013597506040870135966060013595509350505050565b600181811c9082168061115457607f821691505b60208210810361117457634e487b7160e01b600052602260045260246000fd5b50919050565b634e487b7160e01b600052601160045260246000fd5b808201808211156111a3576111a361117a565b92915050565b80820281158282048414176111a3576111a361117a565b6000602082840312156111d257600080fd5b81518015158114610e1957600080fd5b601f82111561122e576000816000526020600020601f850160051c8101602086101561120b5750805b601f850160051c820191505b8181101561122a57828155600101611217565b5050505b505050565b815167ffffffffffffffff81111561124d5761124d610fe0565b6112618161125b8454611140565b846111e2565b602080601f831160018114611296576000841561127e5750858301515b600019600386901b1c1916600185901b17855561122a565b600085815260208120601f198616915b828110156112c5578886015182559484019460019091019084016112a6565b50858210156112e35787850151600019600388901b60f8161c191681555b5050505050600190811b01905550565b60a08152600061130660a0830187610e20565b856020840152846040840152836060840152828103608084015260048152635553444360e01b60208201526040810191505095945050505050565b60a08152600061135460a0830187610e20565b8560208401528460408401528360608401528281036080840152600381526208aa8960eb1b60208201526040810191505095945050505050565b60a0815260006113a160a0830187610e20565b856020840152846040840152836060840152828103608084015260048152631554d11560e21b6020820152604081019150509594505050505056fea264697066735822122097c2816ac91b05e19244a9daa8ff79814c9583bbc4f62b726e67abc45095362164736f6c63430008180033",
  "linkReferences": {},
  "deployedLinkReferences": {}
}