{
  "_format": "hh-sol-artifact-1",
  "contractName": "ARCSubscription",
  "sourceName": "contracts/ARCSubscription.sol",
  "abi": [
    {
      "inputs": [],
      "stateMutability": "nonpayable",
      "type": "constructor"
    },
    {
      "anonymous": false,
      "inputs": [
        {
          "indexed": true,
          "internalType": "address",
          "name": "previousOwner",
          "type": "address"
        },
        {
          "indexed": true,
          "internalType": "address",
          "name": "newOwner",
          "type": "address"
        }
      ],
      "name": "OwnershipTransferred",
      "type": "event"
    },
    {
      "anonymous": false,
      "inputs": [
        {
          "indexed": false,
          "internalType": "address",
          "name": "account",
          "type": "address"
        }
      ],
      "name": "Paused",
      "type": "event"
    },
    {
      "anonymous": false,
      "inputs": [
        {
          "indexed": true,
          "internalType": "address",
          "name": "user",
          "type": "address"
        },
        {
          "indexed": false,
          "internalType": "string",
          "name": "cropType",
          "type": "string"
        },
        {
          "indexed": false,
          "internalType": "uint256",
          "name": "hectares",
          "type": "uint256"
        },
        {
          "indexed": false,
          "internalType": "uint256",
          "name": "premium",
          "type": "uint256"
        },
        {
          "indexed": false,
          "internalType": "uint256",
          "name": "payout",
          "type": "uint256"
        },
        {
          "indexed": false,
          "internalType": "string",
          "name": "paymentMethod",
          "type": "string"
        }
      ],
      "name": "Subscribed",
      "type": "event"
    },
    {
      "anonymous": false,
      "inputs": [
        {
          "indexed": false,
          "internalType": "address",
          "name": "account",
          "type": "address"
        }
      ],
      "name": "Unpaused",
      "type": "event"
    },
    {
      "inputs": [
        {
          "internalType": "address",
          "name": "user",
          "type": "address"
        }
      ],
      "name": "getSubscriptions",
      "outputs": [
        {
          "components": [
            {
              "internalType": "address",
              "name": "user",
              "type": "address"
            },
            {
              "internalType": "address",
              "name": "token",
              "type": "address"
            },
            {
              "internalType": "string",
              "name": "cropType",
              "type": "string"
            },
            {
              "internalType": "uint256",
              "name": "hectares",
              "type": "uint256"
            },
            {
              "internalType": "uint256",
              "name": "pricePerKg",
              "type": "uint256"
            },
            {
              "internalType": "uint256",
              "name": "riskIndex",
              "type": "uint256"
            },
            {
              "internalType": "uint256",
              "name": "premium",
              "type": "uint256"
            },
            {
              "internalType": "uint256",
              "name": "payout",
              "type": "uint256"
            },
            {
              "internalType": "bool",
              "name": "paidInETH",
              "type": "bool"
            },
            {
              "internalType": "bool",
              "name": "active",
              "type": "bool"
            }
          ],
          "internalType": "struct ARCSubscription.Subscription[]",
          "name": "",
          "type": "tuple[]"
        }
      ],
      "stateMutability": "view",
      "type": "function"
    },
    {
      "inputs": [],
      "name": "owner",
      "outputs": [
        {
          "internalType": "address",
          "name": "",
          "type": "address"
        }
      ],
      "stateMutability": "view",
      "type": "function"
    },
    {
      "inputs": [],
      "name": "pause",
      "outputs": [],
      "stateMutability": "nonpayable",
      "type": "function"
    },
    {
      "inputs": [],
      "name": "paused",
      "outputs": [
        {
          "internalType": "bool",
          "name": "",
          "type": "bool"
        }
      ],
      "stateMutability": "view",
      "type": "function"
    },
    {
      "inputs": [],
      "name": "renounceOwnership",
      "outputs": [],
      "stateMutability": "nonpayable",
      "type": "function"
    },
    {
      "inputs": [
        {
          "internalType": "string",
          "name": "cropType",
          "type": "string"
        },
        {
          "internalType": "uint256",
          "name": "hectares",
          "type": "uint256"
        },
        {
          "internalType": "uint256",
          "name": "pricePerKg",
          "type": "uint256"
        },
        {
          "internalType": "uint256",
          "name": "riskIndex",
          "type": "uint256"
        }
      ],
      "name": "subscribeETH",
      "outputs": [],
      "stateMutability": "payable",
      "type": "function"
    },
    {
      "inputs": [
        {
          "internalType": "address",
          "name": "token",
          "type": "address"
        },
        {
          "internalType": "string",
          "name": "cropType",
          "type": "string"
        },
        {
          "internalType": "uint256",
          "name": "hectares",
          "type": "uint256"
        },
        {
          "internalType": "uint256",
          "name": "pricePerKg",
          "type": "uint256"
        },
        {
          "internalType": "uint256",
          "name": "riskIndex",
          "type": "uint256"
        }
      ],
      "name": "subscribeUSDC",
      "outputs": [],
      "stateMutability": "nonpayable",
      "type": "function"
    },
    {
      "inputs": [
        {
          "internalType": "address",
          "name": "token",
          "type": "address"
        },
        {
          "internalType": "string",
          "name": "cropType",
          "type": "string"
        },
        {
          "internalType": "uint256",
          "name": "hectares",
          "type": "uint256"
        },
        {
          "internalType": "uint256",
          "name": "pricePerKg",
          "type": "uint256"
        },
        {
          "internalType": "uint256",
          "name": "riskIndex",
          "type": "uint256"
        }
      ],
      "name": "subscribeUSDT",
      "outputs": [],
      "stateMutability": "nonpayable",
      "type": "function"
    },
    {
      "inputs": [
        {
          "internalType": "address",
          "name": "",
          "type": "address"
        },
        {
          "internalType": "uint256",
          "name": "",
          "type": "uint256"
        }
      ],
      "name": "subscriptions",
      "outputs": [
        {
          "internalType": "address",
          "name": "user",
          "type": "address"
        },
        {
          "internalType": "address",
          "name": "token",
          "type": "address"
        },
        {
          "internalType": "string",
          "name": "cropType",
          "type": "string"
        },
        {
          "internalType": "uint256",
          "name": "hectares",
          "type": "uint256"
        },
        {
          "internalType": "uint256",
          "name": "pricePerKg",
          "type": "uint256"
        },
        {
          "internalType": "uint256",
          "name": "riskIndex",
          "type": "uint256"
        },
        {
          "internalType": "uint256",
          "name": "premium",
          "type": "uint256"
        },
        {
          "internalType": "uint256",
          "name": "payout",
          "type": "uint256"
        },
        {
          "internalType": "bool",
          "name": "paidInETH",
          "type": "bool"
        },
        {
          "internalType": "bool",
          "name": "active",
          "type": "bool"
        }
      ],
      "stateMutability": "view",
      "type": "function"
    },
    {
      "inputs": [
        {
          "internalType": "address",
          "name": "newOwner",
          "type": "address"
        }
      ],
      "name": "transferOwnership",
      "outputs": [],
      "stateMutability": "nonpayable",
      "type": "function"
    },
    {
      "inputs": [],
      "name": "unpause",
      "outputs": [],
      "stateMutability": "nonpayable",
      "type": "function"
    }
  ],
  "bytecode": "0x608060405234801561001057600080fd5b5061002d61002261005360201b60201c565b61005b60201b60201c565b60008060146101000a81548160ff0219169083151502179055506001808190555061011f565b600033905090565b60008060009054906101000a900473ffffffffffffffffffffffffffffffffffffffff169050816000806101000a81548173ffffffffffffffffffffffffffffffffffffffff021916908373ffffffffffffffffffffffffffffffffffffffff1602179055508173ffffffffffffffffffffffffffffffffffffffff168173ffffffffffffffffffffffffffffffffffffffff167f8be0079c531659141344cd1fd0a4f28419497f9722a3daafe3b4186f6b6457e060405160405180910390a35050565b612373806200012f6000396000f3fe60806040526004361061009c5760003560e01c80638456cb59116100645780638456cb591461017d5780638da5cb5b14610194578063c5f2b877146101bf578063ca5f6e56146101e8578063e725810614610204578063f2fde38b1461022d5761009c565b80633f4ba83a146100a15780635c975abb146100b85780635d6a4413146100e3578063623da3d114610120578063715018a614610166575b600080fd5b3480156100ad57600080fd5b506100b6610256565b005b3480156100c457600080fd5b506100cd610268565b6040516100da919061135b565b60405180910390f35b3480156100ef57600080fd5b5061010a600480360381019061010591906113e8565b61027e565b6040516101179190611678565b60405180910390f35b34801561012c57600080fd5b50610147600480360381019061014291906116c6565b6104c3565b60405161015d9a9998979695949392919061176e565b60405180910390f35b34801561017257600080fd5b5061017b610616565b005b34801561018957600080fd5b5061019261062a565b005b3480156101a057600080fd5b506101a961063c565b6040516101b69190611811565b60405180910390f35b3480156101cb57600080fd5b506101e660048036038101906101e19190611961565b610665565b005b61020260048036038101906101fd91906119f8565b610999565b005b34801561021057600080fd5b5061022b60048036038101906102269190611961565b610c8f565b005b34801561023957600080fd5b50610254600480360381019061024f91906113e8565b610fc3565b005b61025e611046565b6102666110c4565b565b60008060149054906101000a900460ff16905090565b6060600260008373ffffffffffffffffffffffffffffffffffffffff1673ffffffffffffffffffffffffffffffffffffffff168152602001908152602001600020805480602002602001604051908101604052809291908181526020016000905b828210156104b85783829060005260206000209060090201604051806101400160405290816000820160009054906101000a900473ffffffffffffffffffffffffffffffffffffffff1673ffffffffffffffffffffffffffffffffffffffff1673ffffffffffffffffffffffffffffffffffffffff1681526020016001820160009054906101000a900473ffffffffffffffffffffffffffffffffffffffff1673ffffffffffffffffffffffffffffffffffffffff1673ffffffffffffffffffffffffffffffffffffffff1681526020016002820180546103bf90611aaa565b80601f01602080910402602001604051908101604052809291908181526020018280546103eb90611aaa565b80156104385780601f1061040d57610100808354040283529160200191610438565b820191906000526020600020905b81548152906001019060200180831161041b57829003601f168201915b5050505050815260200160038201548152602001600482015481526020016005820154815260200160068201548152602001600782015481526020016008820160009054906101000a900460ff161515151581526020016008820160019054906101000a900460ff161515151581525050815260200190600101906102df565b505050509050919050565b600260205281600052604060002081815481106104df57600080fd5b9060005260206000209060090201600091509150508060000160009054906101000a900473ffffffffffffffffffffffffffffffffffffffff16908060010160009054906101000a900473ffffffffffffffffffffffffffffffffffffffff169080600201805461054f90611aaa565b80601f016020809104026020016040519081016040528092919081815260200182805461057b90611aaa565b80156105c85780601f1061059d576101008083540402835291602001916105c8565b820191906000526020600020905b8154815290600101906020018083116105ab57829003601f168201915b5050505050908060030154908060040154908060050154908060060154908060070154908060080160009054906101000a900460ff16908060080160019054906101000a900460ff1690508a565b61061e611046565b6106286000611126565b565b610632611046565b61063a6111ea565b565b60008060009054906101000a900473ffffffffffffffffffffffffffffffffffffffff16905090565b61066d61124d565b610675611297565b60006001826106849190611b0a565b600a856106919190611b3e565b61069b9190611b3e565b90506000606484866106ad9190611b3e565b6106b79190611b3e565b90508673ffffffffffffffffffffffffffffffffffffffff166323b872dd3330856040518463ffffffff1660e01b81526004016106f693929190611b80565b6020604051808303816000875af1158015610715573d6000803e3d6000fd5b505050506040513d601f19601f820116820180604052508101906107399190611be3565b50600260003373ffffffffffffffffffffffffffffffffffffffff1673ffffffffffffffffffffffffffffffffffffffff1681526020019081526020016000206040518061014001604052803373ffffffffffffffffffffffffffffffffffffffff1681526020018973ffffffffffffffffffffffffffffffffffffffff16815260200188815260200187815260200186815260200185815260200184815260200183815260200160001515815260200160011515815250908060018154018082558091505060019003906000526020600020906009020160009091909190915060008201518160000160006101000a81548173ffffffffffffffffffffffffffffffffffffffff021916908373ffffffffffffffffffffffffffffffffffffffff16021790555060208201518160010160006101000a81548173ffffffffffffffffffffffffffffffffffffffff021916908373ffffffffffffffffffffffffffffffffffffffff16021790555060408201518160020190816108bd9190611dbc565b50606082015181600301556080820151816004015560a0820151816005015560c0820151816006015560e082015181600701556101008201518160080160006101000a81548160ff0219169083151502179055506101208201518160080160016101000a81548160ff02191690831515021790555050503373ffffffffffffffffffffffffffffffffffffffff167fcd781fcc65ecda7cc12e25b300ba5b80f4a4fdc2268cf9be23094b81d6344d00878785856040516109809493929190611eda565b60405180910390a250506109926112e6565b5050505050565b6109a161124d565b6109a9611297565b60006001826109b89190611b0a565b600a856109c59190611b3e565b6109cf9190611b3e565b90506000606484866109e19190611b3e565b6109eb9190611b3e565b905081341015610a30576040517f08c379a0000000000000000000000000000000000000000000000000000000008152600401610a2790611f85565b60405180910390fd5b600260003373ffffffffffffffffffffffffffffffffffffffff1673ffffffffffffffffffffffffffffffffffffffff1681526020019081526020016000206040518061014001604052803373ffffffffffffffffffffffffffffffffffffffff168152602001600073ffffffffffffffffffffffffffffffffffffffff16815260200188815260200187815260200186815260200185815260200184815260200183815260200160011515815260200160011515815250908060018154018082558091505060019003906000526020600020906009020160009091909190915060008201518160000160006101000a81548173ffffffffffffffffffffffffffffffffffffffff021916908373ffffffffffffffffffffffffffffffffffffffff16021790555060208201518160010160006101000a81548173ffffffffffffffffffffffffffffffffffffffff021916908373ffffffffffffffffffffffffffffffffffffffff1602179055506040820151816002019081610bb49190611dbc565b50606082015181600301556080820151816004015560a0820151816005015560c0820151816006015560e082015181600701556101008201518160080160006101000a81548160ff0219169083151502179055506101208201518160080160016101000a81548160ff02191690831515021790555050503373ffffffffffffffffffffffffffffffffffffffff167fcd781fcc65ecda7cc12e25b300ba5b80f4a4fdc2268cf9be23094b81d6344d0087878585604051610c779493929190611ff1565b60405180910390a25050610c896112e6565b50505050565b610c9761124d565b610c9f611297565b6000600182610cae9190611b0a565b600a85610cbb9190611b3e565b610cc59190611b3e565b9050600060648486610cd79190611b3e565b610ce19190611b3e565b90508673ffffffffffffffffffffffffffffffffffffffff166323b872dd3330856040518463ffffffff1660e01b8152600401610d2093929190611b80565b6020604051808303816000875af1158015610d3f573d6000803e3d6000fd5b505050506040513d601f19601f82011682018060405250810190610d639190611be3565b50600260003373ffffffffffffffffffffffffffffffffffffffff1673ffffffffffffffffffffffffffffffffffffffff1681526020019081526020016000206040518061014001604052803373ffffffffffffffffffffffffffffffffffffffff1681526020018973ffffffffffffffffffffffffffffffffffffffff16815260200188815260200187815260200186815260200185815260200184815260200183815260200160001515815260200160011515815250908060018154018082558091505060019003906000526020600020906009020160009091909190915060008201518160000160006101000a81548173ffffffffffffffffffffffffffffffffffffffff021916908373ffffffffffffffffffffffffffffffffffffffff16021790555060208201518160010160006101000a81548173ffffffffffffffffffffffffffffffffffffffff021916908373ffffffffffffffffffffffffffffffffffffffff1602179055506040820151816002019081610ee79190611dbc565b50606082015181600301556080820151816004015560a0820151816005015560c0820151816006015560e082015181600701556101008201518160080160006101000a81548160ff0219169083151502179055506101208201518160080160016101000a81548160ff02191690831515021790555050503373ffffffffffffffffffffffffffffffffffffffff167fcd781fcc65ecda7cc12e25b300ba5b80f4a4fdc2268cf9be23094b81d6344d0087878585604051610faa949392919061209c565b60405180910390a25050610fbc6112e6565b5050505050565b610fcb611046565b600073ffffffffffffffffffffffffffffffffffffffff168173ffffffffffffffffffffffffffffffffffffffff160361103a576040517f08c379a00000000000000000000000000000000000000000000000000000000081526004016110319061216d565b60405180910390fd5b61104381611126565b50565b61104e6112ef565b73ffffffffffffffffffffffffffffffffffffffff1661106c61063c565b73ffffffffffffffffffffffffffffffffffffffff16146110c2576040517f08c379a00000000000000000000000000000000000000000000000000000000081526004016110b9906121d9565b60405180910390fd5b565b6110cc6112f7565b60008060146101000a81548160ff0219169083151502179055507f5db9ee0a495bf2e6ff9c91a7834c1ba4fdd244a5e8aa4e537bd38aeae4b073aa61110f6112ef565b60405161111c9190611811565b60405180910390a1565b60008060009054906101000a900473ffffffffffffffffffffffffffffffffffffffff169050816000806101000a81548173ffffffffffffffffffffffffffffffffffffffff021916908373ffffffffffffffffffffffffffffffffffffffff1602179055508173ffffffffffffffffffffffffffffffffffffffff168173ffffffffffffffffffffffffffffffffffffffff167f8be0079c531659141344cd1fd0a4f28419497f9722a3daafe3b4186f6b6457e060405160405180910390a35050565b6111f261124d565b6001600060146101000a81548160ff0219169083151502179055507f62e78cea01bee320cd4e420270b5ea74000d11b0c9f74754ebdbfc544b05a2586112366112ef565b6040516112439190611811565b60405180910390a1565b611255610268565b15611295576040517f08c379a000000000000000000000000000000000000000000000000000000000815260040161128c90612245565b60405180910390fd5b565b6002600154036112dc576040517f08c379a00000000000000000000000000000000000000000000000000000000081526004016112d3906122b1565b60405180910390fd5b6002600181905550565b60018081905550565b600033905090565b6112ff610268565b61133e576040517f08c379a00000000000000000000000000000000000000000000000000000000081526004016113359061231d565b60405180910390fd5b565b60008115159050919050565b61135581611340565b82525050565b6000602082019050611370600083018461134c565b92915050565b6000604051905090565b600080fd5b600080fd5b600073ffffffffffffffffffffffffffffffffffffffff82169050919050565b60006113b58261138a565b9050919050565b6113c5816113aa565b81146113d057600080fd5b50565b6000813590506113e2816113bc565b92915050565b6000602082840312156113fe576113fd611380565b5b600061140c848285016113d3565b91505092915050565b600081519050919050565b600082825260208201905092915050565b6000819050602082019050919050565b61144a816113aa565b82525050565b600081519050919050565b600082825260208201905092915050565b60005b8381101561148a57808201518184015260208101905061146f565b60008484015250505050565b6000601f19601f8301169050919050565b60006114b282611450565b6114bc818561145b565b93506114cc81856020860161146c565b6114d581611496565b840191505092915050565b6000819050919050565b6114f3816114e0565b82525050565b61150281611340565b82525050565b6000610140830160008301516115216000860182611441565b5060208301516115346020860182611441565b506040830151848203604086015261154c82826114a7565b915050606083015161156160608601826114ea565b50608083015161157460808601826114ea565b5060a083015161158760a08601826114ea565b5060c083015161159a60c08601826114ea565b5060e08301516115ad60e08601826114ea565b506101008301516115c26101008601826114f9565b506101208301516115d76101208601826114f9565b508091505092915050565b60006115ee8383611508565b905092915050565b6000602082019050919050565b600061160e82611415565b6116188185611420565b93508360208202850161162a85611431565b8060005b85811015611666578484038952815161164785826115e2565b9450611652836115f6565b925060208a0199505060018101905061162e565b50829750879550505050505092915050565b600060208201905081810360008301526116928184611603565b905092915050565b6116a3816114e0565b81146116ae57600080fd5b50565b6000813590506116c08161169a565b92915050565b600080604083850312156116dd576116dc611380565b5b60006116eb858286016113d3565b92505060206116fc858286016116b1565b9150509250929050565b61170f816113aa565b82525050565b600082825260208201905092915050565b600061173182611450565b61173b8185611715565b935061174b81856020860161146c565b61175481611496565b840191505092915050565b611768816114e0565b82525050565b600061014082019050611784600083018d611706565b611791602083018c611706565b81810360408301526117a3818b611726565b90506117b2606083018a61175f565b6117bf608083018961175f565b6117cc60a083018861175f565b6117d960c083018761175f565b6117e660e083018661175f565b6117f461010083018561134c565b61180261012083018461134c565b9b9a5050505050505050505050565b60006020820190506118266000830184611706565b92915050565b600080fd5b600080fd5b7f4e487b7100000000000000000000000000000000000000000000000000000000600052604160045260246000fd5b61186e82611496565b810181811067ffffffffffffffff8211171561188d5761188c611836565b5b80604052505050565b60006118a0611376565b90506118ac8282611865565b919050565b600067ffffffffffffffff8211156118cc576118cb611836565b5b6118d582611496565b9050602081019050919050565b82818337600083830152505050565b60006119046118ff846118b1565b611896565b9050828152602081018484840111156119205761191f611831565b5b61192b8482856118e2565b509392505050565b600082601f8301126119485761194761182c565b5b81356119588482602086016118f1565b91505092915050565b600080600080600060a0868803121561197d5761197c611380565b5b600061198b888289016113d3565b955050602086013567ffffffffffffffff8111156119ac576119ab611385565b5b6119b888828901611933565b94505060406119c9888289016116b1565b93505060606119da888289016116b1565b92505060806119eb888289016116b1565b9150509295509295909350565b60008060008060808587031215611a1257611a11611380565b5b600085013567ffffffffffffffff811115611a3057611a2f611385565b5b611a3c87828801611933565b9450506020611a4d878288016116b1565b9350506040611a5e878288016116b1565b9250506060611a6f878288016116b1565b91505092959194509250565b7f4e487b7100000000000000000000000000000000000000000000000000000000600052602260045260246000fd5b60006002820490506001821680611ac257607f821691505b602082108103611ad557611ad4611a7b565b5b50919050565b7f4e487b7100000000000000000000000000000000000000000000000000000000600052601160045260246000fd5b6000611b15826114e0565b9150611b20836114e0565b9250828201905080821115611b3857611b37611adb565b5b92915050565b6000611b49826114e0565b9150611b54836114e0565b9250828202611b62816114e0565b91508282048414831517611b7957611b78611adb565b5b5092915050565b6000606082019050611b956000830186611706565b611ba26020830185611706565b611baf604083018461175f565b949350505050565b611bc081611340565b8114611bcb57600080fd5b50565b600081519050611bdd81611bb7565b92915050565b600060208284031215611bf957611bf8611380565b5b6000611c0784828501611bce565b91505092915050565b60008190508160005260206000209050919050565b60006020601f8301049050919050565b600082821b905092915050565b600060088302611c727fffffffffffffffffffffffffffffffffffffffffffffffffffffffffffffffff82611c35565b611c7c8683611c35565b95508019841693508086168417925050509392505050565b6000819050919050565b6000611cb9611cb4611caf846114e0565b611c94565b6114e0565b9050919050565b6000819050919050565b611cd383611c9e565b611ce7611cdf82611cc0565b848454611c42565b825550505050565b600090565b611cfc611cef565b611d07818484611cca565b505050565b5b81811015611d2b57611d20600082611cf4565b600181019050611d0d565b5050565b601f821115611d7057611d4181611c10565b611d4a84611c25565b81016020851015611d59578190505b611d6d611d6585611c25565b830182611d0c565b50505b505050565b600082821c905092915050565b6000611d9360001984600802611d75565b1980831691505092915050565b6000611dac8383611d82565b9150826002028217905092915050565b611dc582611450565b67ffffffffffffffff811115611dde57611ddd611836565b5b611de88254611aaa565b611df3828285611d2f565b600060209050601f831160018114611e265760008415611e14578287015190505b611e1e8582611da0565b865550611e86565b601f198416611e3486611c10565b60005b82811015611e5c57848901518255600182019150602085019450602081019050611e37565b86831015611e795784890151611e75601f891682611d82565b8355505b6001600288020188555050505b505050505050565b7f5553444300000000000000000000000000000000000000000000000000000000600082015250565b6000611ec4600483611715565b9150611ecf82611e8e565b602082019050919050565b600060a0820190508181036000830152611ef48187611726565b9050611f03602083018661175f565b611f10604083018561175f565b611f1d606083018461175f565b8181036080830152611f2e81611eb7565b905095945050505050565b7f4d6f6e74616e742045544820696e737566666973616e74000000000000000000600082015250565b6000611f6f601783611715565b9150611f7a82611f39565b602082019050919050565b60006020820190508181036000830152611f9e81611f62565b9050919050565b7f4554480000000000000000000000000000000000000000000000000000000000600082015250565b6000611fdb600383611715565b9150611fe682611fa5565b602082019050919050565b600060a082019050818103600083015261200b8187611726565b905061201a602083018661175f565b612027604083018561175f565b612034606083018461175f565b818103608083015261204581611fce565b905095945050505050565b7f5553445400000000000000000000000000000000000000000000000000000000600082015250565b6000612086600483611715565b915061209182612050565b602082019050919050565b600060a08201905081810360008301526120b68187611726565b90506120c5602083018661175f565b6120d2604083018561175f565b6120df606083018461175f565b81810360808301526120f081612079565b905095945050505050565b7f4f776e61626c653a206e6577206f776e657220697320746865207a65726f206160008201527f6464726573730000000000000000000000000000000000000000000000000000602082015250565b6000612157602683611715565b9150612162826120fb565b604082019050919050565b600060208201905081810360008301526121868161214a565b9050919050565b7f4f776e61626c653a2063616c6c6572206973206e6f7420746865206f776e6572600082015250565b60006121c3602083611715565b91506121ce8261218d565b602082019050919050565b600060208201905081810360008301526121f2816121b6565b9050919050565b7f5061757361626c653a2070617573656400000000000000000000000000000000600082015250565b600061222f601083611715565b915061223a826121f9565b602082019050919050565b6000602082019050818103600083015261225e81612222565b9050919050565b7f5265656e7472616e637947756172643a207265656e7472616e742063616c6c00600082015250565b600061229b601f83611715565b91506122a682612265565b602082019050919050565b600060208201905081810360008301526122ca8161228e565b9050919050565b7f5061757361626c653a206e6f7420706175736564000000000000000000000000600082015250565b6000612307601483611715565b9150612312826122d1565b602082019050919050565b60006020820190508181036000830152612336816122fa565b905091905056fea2646970667358221220fc47c1983ad4e7fd23f350490f310288a6206944e2f2a118853da1b4b44c0c1364736f6c63430008140033",
  "linkReferences": {},
  "deployedLinkReferences": {}
}